:020000040800F2
:10000000D81100202102000825020008270200085C
:10001000290200082B0200082D0200080000000041
:100020000000000000000000000000002F02000897
:100030003102000800000000330200083502000809
:1000400037020008370200083702000837020008AC
:10005000370200083702000837020008370200089C
:10006000370200083702000837020008370200088C
:10007000370200083702000837020008370200087C
:10008000370200083702000837020008370200086C
:100090005F26000837020008370200083702000810
:1000A000370200083702000837020008370200084C
:1000B000DB1B0008F31B0008291C0008370200089E
:1000C000370200083702000837020008370200082C
:1000D00037020008DF0700086B090008292E000816
:1000E0009946000837020008370200083702000866
:1000F00037020008370200083702000837020008FC
:1001000037020008370200083B1C000837020008CD
:1001100037020008370200083702000837020008DB
:1001200037020008370200083702000837020008CB
:1001300000F002F800F05FF80AA090E8000C82449A
:100140008344AAF10107DA4501D100F054F8AFF277
:10015000090EBAE80F0013F0010F18BFFB1A43F0A5
:100160000103184764CB000084CB00000A444FF021
:10017000000C10F8013B13F0070408BF10F8014B06
:100180001D1108BF10F8015B641E05D010F8016B4B
:10019000641E01F8016BF9D113F0080F1EBF10F8AF
:1001A000014BAD1C0C1B09D16D1E58BF01F801CBD2
:1001B000FAD505E014F8016B01F8016B6D1EF9D555
:1001C0009142D6D37047000000230024002500266A
:1001D000103A28BF78C1FBD8520728BF30C148BFAA
:1001E0000B607047642908F05984002070471FB5E0
:1001F0001FBD10B510BD08F01FFE1146FFF7F7FF39
:1002000000F02AF808F03DFE03B4FFF7F2FF03BC4C
:1002100000F060FA30BF72B662B680F308887047AB
:1002200008480047FEE7FEE7FEE7FEE7FEE7FEE7D9
:10023000FEE7FEE7FEE7FEE703480449044A054BF4
:100240007047000031010008D80B0020D8110020B1
:10025000D80D0020D80D002008B5092000F0E1F9E4
:10026000482000F081F8022000F0C6F9012000F0DB
:10027000C3F900F0FDFD00F035FE3548006818B9FF
:1002800001203449087002E000203249087001F072
:100290006CF84FF4E131482000F036FA4FF4165173
:1002A000242000F0EDFA4FF4E131242002F041FD6A
:1002B00001F0B6FA01F024FB01F08CFB01F0F2FB37
:1002C00001F016F901F0C6FC07F087FB07F099FB77
:1002D000002141F61F4001F01BFA1D48083000685C
:1002E00008B902F06AFC02F005FE03F015F801F00F
:1002F00037FF00200623032202210090012001F095
:1003000059FF23E014480078012804D102F0B6FC1C
:100310000020114908701148007820B908F035F91B
:1003200007F00CFE01E008F0CDF902F04FFA03F0FF
:1003300001F800F0A8FC01200949087000200949D3
:10034000087000BF064800780028FBD1DAE70000FB
:1003500030812142660000207C0000200400002043
:1003600065000020640000204FF0E021096921F0C1
:1003700004014FF0E0221161C21700EB5272C2F388
:10038000C702234B1A701946097801EB4102C2EBF0
:10039000C1114FF6FF7202EAC1011E4A1180704777
:1003A00001461B4A12784A434FF0E0235A6100226B
:1003B0009A6101221A6100BF4FF0E022106900F03B
:1003C00001021AB100F48032002AF5D000224FF069
:1003D000E0231A619A61704701460E4A12884A4327
:1003E0004FF0E0235A6100229A6101221A6100BF96
:1003F0004FF0E022106900F001021AB100F48032DF
:10040000002AF5D000224FF0E0231A619A6170476C
:10041000DC000020DE000020A34A0A400243A34B78
:100420001A6070470146072323EA010212029F4B1C
:100430001B1D18684FF6FF0318409D4B18431043CF
:100440009A4B1B1D186070472DE9F04107468846FE
:1004500014461D462846FFF7E5FFC5F1040007FADC
:1004600000F60F20284100EA0800064306F00F06B8
:10047000E21704EBD2625211920002F1E022D2F8AC
:1004800000212146E31704EBD3635B11A4EB431C6B
:10049000012303FA0CF31A432046E31704EBD3635A
:1004A0005B119B0003F1E023C3F800218148005D4C
:1004B00040EA06107F490855BDE8F08170B5044652
:1004C0000B46CE1701EB9676C6F38700CE1701EBED
:1004D0009676B610A1EB8606B606350E764B9B696E
:1004E00043F00103744EB3614FEAB63353F8203042
:1004F0000F26AE40B343714E46F82030334653F8D2
:10050000203004FA05F61E436C4B43F820606C4B18
:100510001B6801268E403343694E336002F00103AD
:1005200043B1674B0C331B6801268E403343644E46
:100530000C36336002F0020343B1614B08331E688E
:1005400001238B401E435E4B08331E6070BD00B517
:10055000002059490861C860142048610020886162
:10056000C8610846006840F001000860084640681D
:1005700054490840504948600846006852490840BC
:100580004D4908600846006820F48020086008464D
:10059000406820F4FE0048600020886000214FF091
:1005A0000060FFF739FF00BD10B540480830006813
:1005B00040F004003D49083108603F48C06940F000
:1005C00080503D49C8614148406840F480703F49CF
:1005D00048600846006840F004000860084600686B
:1005E00040F002000860FFF715FE10BD3048001D06
:1005F0002E49091D08607047014649062E4A926936
:1006000042F001022C4B9A612C4A083A526822F0BF
:10061000E0622A4B083B5A601A4652680A435A6005
:10062000704730B504460025FFF791FF2248006867
:1006300040F480302049086000BF1F480068400C2B
:100640000028FAD04FF480601B494860A01EC4B255
:100650000846406840EA844048600846406840F4E4
:10066000803048601A48006840F03200184908603D
:100670001148006840F080700F49086000BF0E48C4
:100680000068400E0028FAD00B48406840F0020095
:100690000949486005E008484068C0F3870505F04F
:1006A0000305022DF7D130BD80FFFF1F08ED00E0EC
:1006B0000000FA0500E400E00010024008000140DC
:1006C000000401400000FFF8FFFFF6FE007000404C
:1006D00000200240014600BF704700BFFA4A12885E
:1006E00002F04002002AF9D0C2B2F74B1B1D1A805B
:1006F0007047F649088000BFF449091F098801F0D6
:1007000040010029F8D070472DE9F05F05460E46FC
:1007100030010AF05FFC8146ED4905FB01F00AF06B
:1007200059FC824649460AF00BFB074638460AF058
:1007300019FC84B220460AF04DFC834639460AF083
:100740008EFD82464FF083410AF08CFC81460AF010
:1007500009FC80464FF6FF7000EA041404EB080021
:1007600084B2DC48806940F00400DA4988610846B8
:10077000806940F480408861D748006820F47F6039
:10078000D54908600846006840F40B600860D1480D
:10079000C06840F48040CF49C8600846C06820F473
:1007A0008040C860C948001D0480001D008842F2D6
:1007B0000C010843C549083108800846008840F408
:1007C000807008800846008840F0200008800223DE
:1007D000252201210020FFF737FEBDE8F09FBB482E
:1007E000001F008800F0200000283CD0BB49097899
:1007F00051B9BB490978491CC9B2B94A11700A29D3
:1008000002DD0121B54A1170B0490988C8B2B54965
:10081000097869B9B4490978FE2909D1B349097839
:10082000FF2905D10121AF4A11700021B04A117092
:10083000AC49097801290FD1AE49AD4A12788854E4
:10084000AB490978491CAA4A117011460978082950
:1008500002D10021A34A1170A3490978A34A11705B
:10086000A149087000BF002070479749091D088002
:1008700000BF9549098801F040010029F9D070476F
:100880002DE9F05F05460E4630010AF0A3FB8146D4
:100890008F4905FB01F00AF09DFB824649460AF0AC
:1008A0004FFA074638460AF05DFB84B220460AF04C
:1008B00091FB834639460AF0D2FC82464FF08341D1
:1008C0000AF0D0FB81460AF04DFB80464FF6FF70E0
:1008D00000EA041404EB080084B27E48806940F00A
:1008E00004007C4988610846C06940F40030C86152
:1008F0007948001F006820F47F407749091F08608D
:100900000846006840F40B400860734808300068EF
:1009100040F480607049083108606E48006940F416
:1009200080206C4908610846006920F48020086135
:10093000654808300480001D008842F20C0108431D
:1009400061490C3108800846008840F480700880B6
:100950000846008840F0200008800223262201215A
:100960000020FFF771FDBDE8F09F2DE9FF5F5648BD
:10097000008800F0200000287ED05348001D008829
:100980005D490860084600684B2803D101205B4997
:1009900008700AE058480068492803D056480068A3
:1009A0004A2802D10020554908705548007800288F
:1009B0004DD152480078D0B94F480068412809DB32
:1009C0004D480068482805DC4B48007840384D49C0
:1009D00008703CE048480068082804DC4648007875
:1009E0004849087033E00020464908702FE043482A
:1009F000007801282BD140480068432806D1002008
:100A0000414908700120414908700FE03A480068E8
:100A1000472806D101203C49087000203B49087056
:100A200004E00020384908703849087032480068EE
:100A3000412803D030480068452805D12E48007869
:100A400040383049087002E000202E4908702A48DA
:100A500000687B2802D101202D49087026480068D3
:100A60007D2802D102202A490870294800780128EF
:100A70000CD12148007800E08AE02649264A127805
:100A8000885425480078401C234908702048007885
:100A900002287DD11F48C078502803D101201F496A
:100AA0000870B3E01B48C078572803D101201C49C7
:100AB0000870ABE01748407823286AD016480078C1
:100AC0001849087068E00000004400400438014004
:100AD00040420F000010024004080140780000204E
:100AE000EB0000207A000020E9000020EA0000204E
:100AF000E80000206F000020E40000208D000020AE
:100B000066000020020000200000002001000020FC
:100B1000EC00002070020020ED0000207B0000208F
:100B20007C000020EE000020BD490978BD4A127803
:100B3000881A09F0F4FC804642460B460020BA4968
:100B400008F026FD04460D46B6490978491EB74A05
:100B5000515CA1F1300009F0E2FC064622462B462A
:100B600009F044FD82468B46B14800680AF04EF811
:100B700052465B46CDE9000109F052FACDE9020187
:100B800009F01CFAAA490860A6480078401E01E056
:100B900049E03BE0A3490870A24800780428C3DA82
:100BA000A2484078303809282FD2DFE800F0050C41
:100BB00013181D22272C2D009D4800680AF0B6F955
:100BC0009C49086021E09A4800680AF0AFF99A4908
:100BD00008601AE0964800689849086015E0944853
:100BE00000689749086010E09148006895490860DE
:100BF0000BE08F4800689449086006E08C48006864
:100C00009249086001E000E000BF00BF0020904969
:100C1000087083490870834908708549086032214B
:100C2000824807F0A9FF002004B0BDE8F09F894882
:100C30000078F8B1884800685A281BD00020854AFF
:100C4000107085480068012806DB83480068082882
:100C500002DC814801780BE07F480068412807DB0F
:100C60007D480068482803DC7B4800784038C1B2E2
:100C700008467047784800685A2802D10120754A12
:100C800010700020F5E72DE9F0477448006800284F
:100C900001DD002506E071480068002801DA022520
:100CA00000E001256E480068002801DD002606E00E
:100CB0006B480068002801DA022600E00126694836
:100CC0000068002801DD002706E06648006800286B
:100CD00001DA022700E0012763480068002802DDEE
:100CE0004FF0000808E060480068002802DA4FF082
:100CF000020801E04FF001085C48008800F5004060
:100D000084B2FF20FFF7F5FCFE20FFF7F2FC534909
:100D10000A68002A01DB114600E05142C8B2FFF721
:100D2000E8FC2846FFF7E5FC4D490A68002A01DB8C
:100D3000114600E05142C8B2FFF7DBFC3046FFF736
:100D4000D8FC48490A68002A01DB114600E05142FC
:100D5000C8B2FFF7CEFC3846FFF7CBFC42490A6821
:100D6000002A01DB114600E05142C8B2FFF7C1FC86
:100D70004046FFF7BEFC2012FFF7BBFCE0B2FFF7D6
:100D8000B8FCFF2001F0CAFFFE2001F0C7FF334985
:100D9000D1F80090B9F1000F01DB494601E0C9F13B
:100DA0000001C8B201F0BAFF284601F0B7FF2C4994
:100DB000D1F80090B9F1000F01DB494601E0C9F11B
:100DC0000001C8B201F0AAFF304601F0A7FF254993
:100DD000D1F80090B9F1000F01DB494601E0C9F1FB
:100DE0000001C8B201F09AFF384601F097FF1E4992
:100DF000D1F80090B9F1000F01DB494601E0C9F1DB
:100E00000001C8B201F08AFF404601F087FF2012BE
:100E100001F084FFE0B201F081FFBDE8F08700003F
:100E2000ED000020EE0000200000244070020020B1
:100E3000F0000020BC000020C0000020A80000201E
:100E4000AC000020B0000020B4000020B80000205A
:100E5000EC000020F4000020E40000200800002046
:100E60000C0000201000002014000020D8000020FA
:100E70001748806940F008001549886115480068E6
:100E800020F47000134908600846006840F44010E0
:100E9000086010480830006840F400500D490831DF
:100EA0000860704718B900210B4A11600FE00B4928
:100EB0000968491C094A1160814208D1064909683C
:100EC000C943074AC2F8B4110021044A11607047AF
:100ED00000100240040C0140B4812142F8000020BF
:100EE000008021425948806940F0080057498861D4
:100EF0005748006857490840554908600846006847
:100F0000554908435249086051480830006840F488
:100F100080504F49083108600846006840F480401E
:100F20000860704701464D48006828B94C48008861
:100F3000401C4B4A108002E00020494A108047487C
:100F4000006828B94748007810B90120454A107058
:100F500045480078B0B943480078012807D1434894
:100F60000078401C414A107001203F4A10703F48F1
:100F70000078022806D100203C4A10703C4A1080BC
:100F80000220704735480068012804D10020354A06
:100F90001070354A10703548007801281CD134484B
:100FA0000088401C324A10801046008888420ADDC2
:100FB0002B480088884206DA00202C4A10702C4A00
:100FC00010800120DDE726480088884204DD0020EB
:100FD000264A1070264A10800020D2E72548007863
:100FE00038B11E48006820B900202249087001204D
:100FF00070471A480068012801D11E490870002076
:10100000F6E71D48008840B91448006828B91B4815
:101010000088401C1949088002E000201749088018
:1010200016480088C82807DD0120134908800020E1
:1010300012490880012070470F480088012802D11A
:1010400000200D4908800020F5E700000010024054
:10105000040C0140FFFFF0F0000008083881214235
:1010600002010020FC000020FD000020FE00002006
:1010700000010020040100200801002006010020DA
:1010800010B50A461AB10123FE4C236002E000238A
:10109000FC4C2360002116E00023FA4C343423601A
:1010A00000F080031BB10123241D236003E0002313
:1010B000F44C383423600123F24C3434236043066B
:1010C000180E4B1CD9B20829E6DB0123ED4C236036
:1010D00010BD30B500241CE004F1B001C8B20021FD
:1010E000FFF7CEFF00210846FFF7CAFF00211020BE
:1010F000FFF7C6FF002508E0E34901EBC501085DE5
:101100000121FFF7BDFF681CC5B2802DF4DB601C18
:10111000C4B2082CE0DB30BD00B500218D20FFF704
:10112000AFFF00211420FFF7ABFF0021AF20FFF736
:10113000A7FF00BD00B500218D20FFF7A1FF002112
:101140001020FFF79DFF0021AE20FFF799FF00BDA3
:1011500030B500240CE0002506E00020CA4901EB70
:10116000C5010855681CC5B2802DF6DB601CC4B2F1
:10117000082CF0DBFFF7ADFF30BDF0B514460026BC
:101180007F2801DC3F2900DDF0BD0B46CF1701EBC6
:101190005777FF10C7F10707FAB2CF1701EB577760
:1011A000FF10A1EBC707FDB2C5F107070123BB4044
:1011B000DEB24CB1B44B03EBC0039B5C3343B24F84
:1011C00007EBC007BB5408E0AF4B03EBC0039B5CCD
:1011D000B343AD4F07EBC007BB5400BFD4E72DE9C5
:1011E000F04F80460C4615461E46A346A5F120004A
:1011F000C5B200273EE00C2E07D105EB4500A34900
:1012000001EB800010F8079004E0A14800EB051006
:1012100010F807904FF0000A26E009F0800028B18E
:1012200021464046099AFFF7A8FF09E0099808B946
:10123000012000E00020024621464046FFF79DFFC6
:101240004FEA49604FEA1069601CC4B2A4EB0B007E
:10125000B04205D15C4608F1010000F0FF0806E04D
:101260000AF1010000F0FF0ABAF1080FD5DB00BF58
:10127000781CC7B2B742BEDBBDE8F08F10B502469E
:10128000012000E050430B00A1F10104E1B2F9D1CB
:1012900010BD2DE9FF4F81B0074691461E460E9DB9
:1012A0004FF0000A002439E0301B401EC1B20A2072
:1012B000FFF7E4FFB9FBF0F00A21B0FBF1F201FB0C
:1012C0001208BAF1000F16D1701EA04213DDB8F15A
:1012D000000F0ED10120AB4605EBDB71491001FB7D
:1012E00004710090C8B22B4620220299FFF777FFC5
:1012F00012E04FF0010A0120AB4605EBDB7149100B
:1013000001FB04710090C8B208F13001CAB22B464B
:101310000299FFF764FF00BF601CC4B2B442C3DB94
:1013200005B0BDE8F08F78B505460E46144618E0C6
:101330007A2D03DD002506F11000C6B23A2E04DD39
:10134000002005460646FFF703FF012000902278A3
:101350000C2331462846FFF742FF05F10800C5B2CD
:10136000641C20780028E3D178BD10B54948806915
:1013700040F01000474988610846806940F001004C
:10138000886145484068C0F31300434948600846F7
:10139000406842490843404948600846006820F0D8
:1013A0000F0008600846006840F0020008603C48F2
:1013B000006840F480703A4908603648006A20F0BE
:1013C0000100344908623748008820F0010035499F
:1013D00008803348006820F480703149086000209C
:1013E00028493C3108606420FEF7F6FF01202E49B1
:1013F000C1F8BC010021AE20FFF742FE0021D5203C
:10140000FFF73EFE00215020FFF73AFE0021A82002
:10141000FFF736FE00213F20FFF732FE0021D320E8
:10142000FFF72EFE00210846FFF72AFE002140208C
:10143000FFF726FE00218D20FFF722FE0021142059
:10144000FFF71EFE00212020FFF71AFE00210220D8
:10145000FFF716FE0021A120FFF712FE0021C02099
:10146000FFF70EFE0021DA20FFF70AFE002112200E
:10147000FFF706FE00218120FFF702FE0021EF208A
:1014800014E0000080012242A20200204EB40008B5
:10149000C2B80008001002400010014000002022E5
:1014A00000700040306C004000002242FFF7E8FD71
:1014B0000021D920FFF7E4FD0021F120FFF7E0FD36
:1014C0000021DB20FFF7DCFD00213020FFF7D8FDF5
:1014D0000021A420FFF7D4FD0021A620FFF7D0FDB6
:1014E0000021AF20FFF7CCFDFFF732FE10BD00005A
:1014F0006D48806940F004006B4988616B48006862
:1015000020F47000694908606748806940F4007001
:10151000654988610846C06840F40070C8600846A4
:10152000C06820F40070C8600846406820F440405D
:1015300048600846406840F4004048605C480068E5
:101540005C4908405A490860084600680860084637
:10155000006820F480700860081D006820F0020018
:10156000091D08600846006820F4602008600846ED
:10157000006840F4602008600846006840F480106D
:1015800008600846006820F4006008604848283079
:10159000006820F470004649283108600846006859
:1015A0000020086042480C30006820F47000404978
:1015B0000C3108600846006840F4603008603C4820
:1015C000001D006840F001003949091D0860084607
:1015D000006840F00800086000BF3548001D006842
:1015E00000F008000028F8D13148001D006840F0E4
:1015F00004002F49091D086000BF2D48001D006828
:1016000000F004000028F8D1704701462848303027
:10161000006820F01F00264A303210601046006833
:10162000084310602248001D006840F48000204AF2
:10163000121D106000BF1E48001F006800F002006D
:101640000028F8D01A484830006880B270472DE969
:10165000F04F87B00520FFF7D8FF019008F076FF24
:1016600080464FF06632144B08F0C0FF0022134B47
:10167000CDE9020108F0BAFF0022114BCDE90401C7
:1016800008F0B4FF064600220E4B08F085FD044624
:1016900000220D4B08F080FD824608F011FF0690F5
:1016A000069807B0BDE8F08F001002400008014026
:1016B00004240140FFFFF00066660A400000264057
:1016C000000059400000F03F0000B04050488069E1
:1016D00040F008004E4988610846806940F01000DB
:1016E00088614C48006820F0FF004A4908600846BD
:1016F000006840F0220008604748006820F47F003E
:10170000454908600846006840F4081008607047C2
:1017100000B503460A46FFF7D9FF3D48806940F40B
:1017200000503B4988610846806940F0100088619C
:101730003948406820F0FF00374948600846406853
:1017400040F0BB0048600846006820F07F40086019
:101750000846006840F03B40086030480380001FA6
:1017600002802E481438008840F060002B4914395C
:1017700008800846008840F4C0400880081D0088A2
:1017800040F06000091D08800846008840F4C04011
:101790000880081F008840F00800091F08800846DC
:1017A000008840F400600880081D008840F00800B0
:1017B000091D08800846008840F400600880081D64
:1017C000008840F00100091D08800846008840F0AC
:1017D000100008800846008840F4807008800846A1
:1017E000008840F4805008800C481830008840F48D
:1017F00000400A49183108804FF4004007492C394D
:1018000008800846008840F00100088000BD000004
:1018100000100240000C0140001001402C34014037
:1018200010B5FA48406840F48070F8494860F848BC
:10183000C06940F00100F649C8610846806940F07F
:10184000040088610846806940F008008861F1481A
:10185000006820F07040EF4908600846006840F0DA
:1018600080400860EC48006820F47040EA49086055
:101870000846006840F4804008604FF0804080894E
:1018800040F001004FF0804188810846808940F097
:101890004000888101231C2203211846FEF7D4FD55
:1018A00000204FF0804108854FF6FF70888508467C
:1018B000008820F4407008800846008820F060000E
:1018C00008800846008B40F0010008830846008B22
:1018D00040F4807008830846008C20F002000884E1
:1018E0000846008C20F0200008840846008940F05B
:1018F000030008810846008840F00100088010BD00
:1019000010B5C348C06940F00200C149C86108462B
:10191000806940F008008861BE48001F006820F020
:101920007F40BC49091F08600846006840F08840B5
:101930000860BA48008840F00100B84908800846AD
:10194000008840F04000088001231D220321184632
:10195000FEF77AFD0020B1491C3108804FF6FF7078
:10196000091D0880AD480C38008820F44070AB4950
:101970000C3908800846008820F060000880A748DD
:101980000C30008840F00100A4490C310880084662
:10199000008840F480700880A0481430008820F04F
:1019A00002009E49143108800846008820F020007B
:1019B00008809A48001F008840F003009749091FDB
:1019C000088096480C38008840F0010093490C3993
:1019D000088010BD10B58E48C06940F004008C49E5
:1019E000C8610846806940F0080088618A4800683C
:1019F00020F07F40884908600846006840F0884031
:101A000008608748008840F0010085490880084642
:101A1000008840F04000088001231E220321184660
:101A2000FEF712FD00207E491C3108804FF6FF7042
:101A3000091D08807A480C38008820F440707849E5
:101A40000C3908800846008820F06000088074483F
:101A50000C30008840F0010071490C3108800846C4
:101A6000008840F4807008806D481430008820F0B1
:101A700002006B49143108800846008820F02000DD
:101A800008806748001F008840F003006449091F70
:101A9000088063480C38008840F0010060490C3928
:101AA000088010BD10B55A48C06940F00800584978
:101AB000C8610846806940F0040088615548001FED
:101AC000006820F0FF005349091F086008460068BD
:101AD00040F044000860C804808940F00100C90457
:101AE00088810846808940F04000888101233222A5
:101AF00003211846FEF7A8FC00204A4908804FF64B
:101B0000FF70091D088047482838008820F440707D
:101B10004449283908800846008820F06000088081
:101B200040481038008840F001003E4910390880D4
:101B30000846008840F4807008803A4808380088D9
:101B400020F002003749083908800846008820F054
:101B50002000088033482038008840F003003149D5
:101B6000203908802F482838008840F001002D498E
:101B70002839088010BD0146022906D003290DD05E
:101B8000042914D0052924D11AE04FF08042928C08
:101B900010B200224FF080439A841CE01F4A183292
:101BA000128810B200221D4B18331A8013E01C4A11
:101BB0001832128810B20022194B18331A800AE02A
:101BC000184A121F128810B20022164B1B1F1A80CF
:101BD00001E0002000BF00BF70474FF08040008A46
:101BE0004FF08040008A20F001004FF080410882D1
:101BF00070470A48001D00880848001D008820F032
:101C000001000649091D08807047000000000140DE
:101C10000010024004080140000C01400C04004088
:101C20000C080040280C004008480088074800883D
:101C300020F00100054908807047054800880448E5
:101C4000008820F001000249088070471008004019
:101C5000100C0040F748806940F00800F5498861A1
:101C6000F548006820F47F40F349086008460068A2
:101C700040F44C500860704710B5EF48006820F4FD
:101C80007040ED4908600846006840F44050086024
:101C90000120EA490860EA48D0F82C0108B9002080
:101CA00010BD0120E549091F0860FEF779FB0020FF
:101CB000E349C1F8AC01E1488038006808B1002070
:101CC000EEE70120FEF76CFB0020DC49091F0860ED
:101CD0000120E5E710B5D848006820F47040D649E7
:101CE00008600846006840F4405008600020D3496E
:101CF000091F0860D249C1F8AC010120FEF750FB72
:101D00000120CE49091F0860CD49C1F8AC01FEF79A
:101D100047FB10BD10B50024C748006820F4704090
:101D2000C54908600846006840F40040086001208A
:101D3000C2490860FEF734FB0120C149C1F8A8017F
:101D4000FEF72EFB0AE0601CC4B2322C03DDFFF765
:101D5000C1FF002010BD0120FEF722FBB7488038EC
:101D600000680028EFD1B549091F08600120F1E79C
:101D700010B50020B149091F0860AF48006820F481
:101D80007040AD4908600846006840F44050086063
:101D90000020AB49C1F8AC010120FEF701FB012096
:101DA000A649091F0860FEF7FBFA0020A449C1F804
:101DB000A80110BD10B50020A049091F08609E4869
:101DC000006820F470409C4908600846006840F4B0
:101DD0004050086001209A49C1F8AC01FEF7E0FAD2
:101DE00001209649091F0860FEF7DAFA002094499D
:101DF000C1F8A80110BD70B504468F48006820F4F2
:101E000070408D4908600846006840F44050086002
:101E100000208A49091F0860002516E0E00987496B
:101E200008606006040E0120FEF7BAFA012084491A
:101E3000C1F8A801FEF7B4FA00208049091F086024
:101E40000120FEF7ADFA681CC5B2082DE6DB70BDB7
:101E50002DE9F04105460E4617469846FFF70CFF60
:101E600010B90120BDE8F0816906080EFFF7C3FF35
:101E7000FFF750FF18B9FFF72DFF0120F2E73046BA
:101E8000FFF7B9FFFFF746FF00240BE018F8040046
:101E9000FFF7B1FFFFF73EFF18B9FFF71BFF002068
:101EA000E0E7641CBC42F1DBFFF714FF0020D9E738
:101EB00070B5054600246048006820F470405E4913
:101EC00008600846006840F400400860002617E0FB
:101ED00000205A49091F08600220FEF761FA01201C
:101EE0005749C1F8A8016006040E544880380068BC
:101EF00008B1601CC4B20220FEF752FA701CC6B2D0
:101F0000082EE5DB15B1FFF733FF01E0FFF752FFC5
:101F1000204670BD2DE9F04106460F4614461D4689
:101F2000FFF7AAFE10B90120BDE8F0817106080E86
:101F3000FFF761FFFFF7EEFE18B9FFF7CBFE0120B8
:101F4000F2E73846FFF757FFFFF7E4FEFFF794FE8E
:101F5000012101EB4601C8B2FFF74DFFFFF7DAFEA2
:101F60000DE0012C04D10020FFF7A2FF287003E050
:101F70000120FFF79DFF28706D1C601EC4B2002C6D
:101F8000EFD1FFF7A7FE0020CEE770B505460E465D
:101F90000024FFF771FE2846FFF72DFF641CFFF7B2
:101FA000B9FE3046FFF727FF641CFFF7B3FEFFF7CB
:101FB00063FE691CC8B2FFF71EFF641CFFF7AAFE90
:101FC0000020FFF775FF0446FFF784FE204670BD32
:101FD0002DE9F0410746884615461E460024FFF7C6
:101FE0004BFE3846FFF707FFFFF794FE4046FFF72A
:101FF00002FFFFF78FFEFFF73FFE791CC8B2FFF725
:10200000FAFEFFF787FE00BF0DE0681EA04204D075
:102010000120FFF74DFF305503E00020FFF748FF98
:102020003055601CC4B2AC42EFDBFFF753FE2046D4
:10203000BDE8F08100100240040C0140AC81214257
:10204000008021422DE9F04180460D4616461F468C
:102050000024FFF711FE4046FFF7CDFEFFF75AFEC2
:102060002846FFF7C8FEFFF755FE00BF06E0385DC3
:10207000FFF7C1FEFFF74EFE601CC4B2B442F6DBB0
:10208000FFF728FE0120BDE8F08170B505460E4639
:10209000144631462846FFF778FF2070012070BDB6
:1020A00037B504460D4602AB012229462046FFF70C
:1020B000C9FF3EBD2DE9F8430746884614461D4634
:1020C000089E6A4641463846FFF7DFFF28B3601C8A
:1020D000FF2101FA00F0C4F108012944491EFF2242
:1020E0000A41104300F0FF09C5F1080006FA00F0AC
:1020F000C6B2C4F1070006419DF8000000EA0900DD
:1021000000909DF80000304300909DF8002041466B
:102110003846FFF7C5FFBDE8F8830020FBE7F8B5B8
:1021200006460F4614461D466A4639463046FFF7B6
:10213000ACFF2DB10120A0409DF80010084305E040
:102140000120A0409DF8001021EA0000C0B20090DC
:102150009DF8002039463046FFF7A2FFF8BD000089
:1021600010B51248806940F0080010498861104895
:10217000006820F070400E4908600846006840F092
:10218000004008600A480830006840F400400849F0
:102190000831086001220F211046FEF78FF9022353
:1021A000282201211846FEF74FF910BD0010024009
:1021B000040C01402DE9F04704460D4616461F4623
:1021C000DDF820904FF0000814B10DB106B117B939
:1021D0000120BDE8F087601EC4B2681EC5B2701E43
:1021E000C6B2781E87B2FE48806940F00100FC4903
:1021F00088610846806940F0080088610846C06927
:1022000040F00070C861F748006820F0FF00F54911
:1022100008600846006840F0B8000860F1480830DF
:10222000006840F44070EF4908310860EE484068AB
:1022300040F48040EC4948600020EC4908600846C2
:10224000006840F00100086008E008F101001FFA92
:1022500080F8B8F1640F01DD0220BAE7E348001D01
:10226000006800F001000028EFD0E0480068DF4976
:10227000086008460068086008460068086008466C
:10228000006840F0100008600846006808600846D2
:10229000006808600020D5491C31086008460068C5
:1022A00040EA897008600846006840EA04600860F7
:1022B0000846006840EA055008600846006840EAA1
:1022C000064008600846006838430860C748006850
:1022D00020F00100C549086009E008F101001FFA7B
:1022E00080F84FF6F070804501DD032071E7BF48AC
:1022F000001D006800F001000028EED1BC48006815
:1023000040F00100BA490860B9481C30006820F06C
:102310000100B7491C310860B5480C30006840F036
:102320000100B3490C310860B148001D0068B04994
:10233000091D0860AE4814300068AD4914310860CA
:102340000020AB49403108600021A94844300160B9
:10235000A7481C30006840F00100A5491C31086006
:10236000A34800680020A2490860A0481430006813
:1023700040F002009D49143108600223142200211C
:102380000120FEF761F8002023E7F0B505460E4670
:10239000059C96480830006800F0806008B1002174
:1023A00011E092480830006800F0006008B1012197
:1023B00009E08E480830006800F0805008B1022122
:1023C00001E0FF20F0BD00278948803800EB0110B4
:1023D00007601EB9C5F30A056D0502E025F06045EA
:1023E000ED008348803800EB011000682843804FDF
:1023F000803F07EB011738607D48803800EB011003
:10240000006840EA86077A48803800EB01100760D0
:102410007748803800EB0110006840EA42077448B2
:10242000803800EB0110076003F00F03704880381C
:1024300000EB0110406820F00F076D48803800EB7A
:10244000011047606A48803800EB0110406818436B
:10245000674F803F07EB01177860E0790006A779A6
:1024600040EA0740677940EA072720790743604838
:10247000803800EB0110C760E0780006A77840EADA
:102480000740677840EA072027783843584F803F55
:1024900007EB0117B8605648803800EB0110006860
:1024A00040F001075248803800EB011007600846F1
:1024B00088E70146002021B1012916D002293CD12C
:1024C00027E04A4A0832126802F001021043474AE4
:1024D0000832126802F002021043444A08321268BD
:1024E00002F0806240EA126029E0404A0832126835
:1024F00002F0010210433D4A0832126802F0020263
:1025000010433A4A0832126802F0006240EA526010
:1025100015E0364A0832126802F001021043334ACD
:102520000832126802F002021043304A0832126880
:1025300002F0805240EA926001E0052000BF00BF37
:102540007047014629B929480C30006800F00300A3
:102550007047012905D125481030006800F00300BC
:10256000F6E70020F4E7F0B5DDE90554204E503ED3
:1025700006EB0016366806F00406167016783EB9AB
:102580001B4E503E06EB00163668760D0E6006E0D8
:10259000174E503E06EB00163668F6080E60144ED5
:1025A000503E06EB0016366806F002061E70104E0E
:1025B000503E06EB0016766806F00F062E700C4EA5
:1025C000503E06EB0016B6682670094E503E06EBEC
:1025D0000016B668360A6670054E503E0AE00000E6
:1025E00000100240040C0140000001400064004063
:1025F0000066004006EB0016B668360CA670D24E98
:1026000006EB0016B668360EE670CF4E06EB0016E7
:10261000F6682671CC4E06EB0016F668360A66712F
:10262000C94E06EB0016F668360CA671C64E06EBD0
:102630000016F668360EE67130B9C44E366846F0BC
:102640002006C24F3E6009E0012807D1BF4E361D6B
:10265000366846F02006BD4F3F1D3E60F0BD10B508
:102660008AB0BBA103C9CDE9040102A806A907AB42
:1026700008AACDE9001009A90020FFF774FF002483
:102680000FE0072C04D102A8005DB34908700AE0EE
:1026900002A8005D04A9095D884200D003E0601C27
:1026A000C4B2072CEDDD00BF40F221110998884229
:1026B00007D1A948007820B1A84802990160039980
:1026C00041600AB010BDF8B505460E4600243346F9
:1026D0000022114640F201600095FFF756FE0746C2
:1026E00001E0601C84B23846FFF7E3FE072803D000
:1026F00040F6FF708442F4DB40F6FF70844201DB59
:102700000120F8BD0020FCE710B586B0044600208B
:10271000FFF717FF10B9002006B010BD02A803ABE9
:1027200004AA05A9CDE900040020FFF71CFF0598C5
:10273000122805D19DF8100010B99DF80C0008B1C1
:10274000002002909DF80800E6E7F8B505460E4621
:10275000002433460022114640F201700095FFF735
:1027600014FE074601E0601C84B23846FFF7A1FE64
:10277000072803D040F6FF708442F4DB40F6FF7078
:10278000844201DB0120F8BD0020FCE7F8B50646D5
:102790000D46002408230022114630460095FFF71D
:1027A000F4FD074601E0601C84B23846FFF781FE65
:1027B000072803D040F6FF708442F4DB40F6FF7038
:1027C000844201DB0120F8BD0020FCE72DE9FC5F1D
:1027D00063480068002801DD002406E060480068C6
:1027E000002801DA022400E001245E480068002885
:1027F00001DD002506E05B480068002801DA0225BB
:1028000000E0012558480068002801DD002606E0A8
:1028100055480068002801DA022600E001265348E6
:102820000068002801DD002706E050480068002805
:1028300001DA022700E001274D494E48006808F000
:1028400011FC4D49009008F00DFA019008F08AFB48
:102850001FFA80F846494948006808F003FC4649D9
:10286000009008F0FFF9019008F07CFB1FFA80F956
:102870003F494348006808F0F5FB3F49009008F0E5
:10288000F1F9019008F06EFB1FFA80FA3D4880884C
:1028900000F500401FFA80FB3B48007808B9012092
:1028A00000E000203849087008460078C8B94FEAAF
:1028B00028203649087081F801804FEA2920887065
:1028C00081F803904FEA2A20087181F805A04FEAA9
:1028D0002B20887181F807B04FF48070FFF756FF06
:1028E00030E01F490868002801DB014600E0414252
:1028F000264A1170104644701A490868002801DB06
:10290000014600E04142214A91701046C5701649C7
:102910000868002801DB014600E041421B4A1171B2
:102920001046467111490868002801DB014600E0A5
:102930004142164A91711046C771014640F201109A
:10294000FFF724FFBDE8FC9FB06500400C64004029
:102950000A0C0F13181E25007700002067000020C6
:10296000080000200C0000201000002014000020AF
:102970000000C842900000200060EA469400002059
:10298000980000200C0200200A0100207D00002099
:10299000D048D1494860D14848607047CE48006966
:1029A00040F08000CC4908617047CB48C16801F015
:1029B000010008B10120704701F0040008B10220B5
:1029C000F9E701F0100008B10320F4E70020F2E776
:1029D00070B5044600BFFFF7E8FF0546012D00D0A3
:1029E00006E00120FDF7DCFC601E84B2002CF2D171
:1029F00000BF04B9FF25284670BD70B50546002408
:102A000045F6FF70FFF7E4FF0446C4B9B248006919
:102A100040F00200B049086108464561006940F095
:102A20004000086145F6FF70FFF7D2FF0446012C15
:102A300005D0A948006920F00200A7490861204696
:102A400070BD70B505460E46FF20FFF7C1FF044676
:102A500094B9A148006940F001009F4908612E80A7
:102A6000FF20FFF7B5FF0446012C05D09A48006906
:102A700020F0010098490861204670BD0146088891
:102A800070472DE9F04105460E461746002407E041
:102A900036F814102846FFF7D4FFAD1C601C84B232
:102AA000BC42F5DBBDE8F08130B503460C46154667
:102AB000002207E01846FFF7E1FF24F812009B1CF4
:102AC000501C82B2AA42F5DB30BD2DE9F05F804692
:102AD0008A461746B8F1006F02D38148804501D37A
:102AE000BDE8F09FFFF754FFA8F1006B4FEA9B256C
:102AF000CBF34809C9F50074A74200DC3C464EE020
:102B00004FF0006101EB85208A147649FFF7CCFF76
:102B100000260BE009EB0600724931F810004FF671
:102B2000FF71884200D003E0701C86B2A642F1DB40
:102B300000BFA6421BDA4FF0006101EB8520FFF7D2
:102B40005CFF002608E03AF8160006EB0901654A2A
:102B500022F81100701C86B2A642F4DB4FF000612F
:102B600001EB85208A145F49FFF78BFF04E02246C2
:102B700051464046FFF785FFA74200D110E06D1C8B
:102B80004FF000090AEB440A08EB4408381B87B2EF
:102B9000B7F5007F02DD4FF4007400E03C46AFE77C
:102BA00000BFFFF7FBFE00BF9AE713B50446012202
:102BB00001A92046FFF789FF1CBD10B50A224A492A
:102BC0004A48FFF771FF484800884FF6FF71884276
:102BD0002DD145484088884229D143488088884281
:102BE00025D14148C088884221D13F480089884288
:102BF0001DD13D484089884219D13B48808988428F
:102C000015D11E203A49086040F6B83039490860AD
:102C100039483A49086000203949086039483A493A
:102C200008603A483A4908603A49086025E02E4869
:102C300000882F4908602C4840882E4908602A499E
:102C4000888808F0C7F92D4908602749C88808F026
:102C5000C1F92B4908602449088908F0BBF92A49C1
:102C600008602149488908F0B5F9294908601E49DA
:102C7000888908F0AFF92749086010BD10B51C48D5
:102C80000088254908801B48008848801B48006848
:102C900008F068F9204988801948006808F062F94E
:102CA0001D49C8801848006808F05CF91A49088175
:102CB0001748006808F056F9174948811548006818
:102CC00008F050F9144988810A220848FFF7FDFEF0
:102CD00010BD00002301674500200240AB89EFCD05
:102CE00000000108A20600204802002000E00008C1
:102CF000BC000020C00000200000A041A80000206F
:102D0000AC00002000004843B0000020000040411B
:102D1000B4000020B80000205C0200206849088050
:102D200000BF6749091F098801F040010029F8D058
:102D300070472DE9F05F05460E46300108F04AF96C
:102D40008146604905FB01F008F044F98246494696
:102D500007F0F6FF0746384608F004F984B220462B
:102D600008F038F98346394608F079FA82464FF080
:102D7000834108F077F9814608F0F4F880464FF671
:102D8000FF7000EA041404EB080084B24E48806926
:102D900040F001004C4988610846806940F010000D
:102DA00088610846C06940F48020C861474840688F
:102DB00020F47F40454948600846406840F40B4095
:102DC00048600846C06840F48060C8604048406879
:102DD00040F010003E4948603B48006940F48020C4
:102DE000394908610846006920F4802008613448A8
:102DF000001D0480001D008842F20C010843304988
:102E0000083108800846008840F480700880084631
:102E1000008840F0200008800223272201210020A2
:102E2000FDF712FBBDE8F09F10B52548001F008894
:102E300000F02000002841D02648007850B92648EC
:102E40000078401CC0B2244908700A2802DD012025
:102E5000204908701A480088C4B2204608F0BAF821
:102E60001E4908601E48007868B91E480078FE2890
:102E700009D11D480078FF2805D1012018490870A4
:102E800000201A4908701648007801280FD1184808
:102E900016490978445415480078401C13490870B5
:102EA00008460078082802D100200D4908700D4816
:102EB00000780D4908700B48047000BF002010BD59
:102EC0000448004040420F00001002400010014042
:102ED00000000140780000200E010020600000206A
:102EE0007A0000200C0100200D0100200B010020C1
:102EF0006F000020FD48806940F00400FB498861B4
:102F00000846806940F010008861F948006820F4A4
:102F10007060F74908600846006840F40060086087
:102F2000F248806940F01000F0498861F04800687C
:102F30004FF2F0018843EE4908600846006843F20A
:102F400030010843EA490860EA48006820F470202C
:102F5000E84908600846006840F44030086070475F
:102F600038B50446012000900020E3494870012054
:102F700000902DE0BDF80000204018B10120DF498D
:102F8000086002E00020DD4908600120DC4908609B
:102F90000520FDF705FA0020DA49C1F89001052067
:102FA000FDF7FEF90120D749C1F89001D648D0F8C5
:102FB000080130B1D0484078BDF800100843CE4930
:102FC0004870BDF800004FF6FF7101EA4000009024
:102FD000BDF80000FF28CDDD1020FDF7E1F938BD78
:102FE00010B50020C54908310860C8490878FFF7C6
:102FF000B7FFC6494878FFF7B3FF0120C249C1F8BF
:103000008C01BD484078732801D1002010BD0120FB
:10301000FCE71CB500200190012000900020B7497A
:1030200008310860B9490878FFF79AFFB74948782E
:10303000FFF796FF0220019035E00120009026E086
:103040000120AF4908600520FDF7AAF90020AD492D
:10305000C1F890010520FDF7A3F90120A949C1F8A5
:103060009001A948D0F8080150B1A3489DF8041078
:10307000405CBDF8001008439F499DF80420885427
:10308000BDF800004FF6FF7101EA40000090BDF866
:103090000000FF28D4DD1020FDF782F99DF8040020
:1030A000401CC0B201909DF804000928C5DB012036
:1030B0009249083108601CBD002004E000218E4ABE
:1030C0001154411CC8B20928F8DB704710B5FFF74E
:1030D000F3FFFFF79EFF8848C0788749097940EAE7
:1030E00001208B49088000240FE08A4810F8140062
:1030F000401E012101FA00F085490988084010B9F5
:10310000601CC0B210BD601CC4B2102CEDDB0020EE
:10311000F8E701467848405C704770B505460C46B4
:1031200000207649083108601020FDF739F90120A8
:10313000FFF716FF4220FFF713FF0020FFF710FFF5
:103140002846FFF70DFF2046FFF70AFF0020FFF794
:1031500007FF0020FFF704FF0020FFF701FF00201A
:10316000FFF7FEFE01206849C1F88C011020FDF731
:1031700017F970BD10B500206049083108601020B3
:10318000FDF70EF90120FFF7EBFE4220FFF7E8FE06
:103190000020FFF7E5FE0020FFF7E2FE0020FFF72A
:1031A000DFFE01205849C1F88C011020FDF7F8F826
:1031B00010BD10B500205149083108601020FDF7FE
:1031C000EFF80120FFF7CCFE4320FFF7C9FE0020F7
:1031D000FFF7C6FE0120FFF7C3FE0020FFF7C0FE89
:1031E0000020FFF7BDFE0020FFF7BAFE0020FFF72A
:1031F000B7FE0020FFF7B4FE01204349C1F88C015F
:103200001020FDF7CDF810BD10B500203B49083166
:1032100008600120FFF7A4FE4420FFF7A1FE002074
:10322000FFF79EFE0120FFF79BFE0320FFF798FEAD
:103230000020FFF795FE0020FFF792FE0020FFF729
:103240008FFE0020FFF78CFE01202F49C1F88C0172
:103250001020FDF7A5F810BD10B500202749083152
:1032600008601020FDF79CF80120FFF779FE4D2043
:10327000FFF776FE0020FFF773FE0020FFF770FED9
:103280000120FFF76DFE01201F49C1F88C011020BD
:10329000FDF786F810BD10B5002018490831086008
:1032A0001020FDF77DF80120FFF75AFE4320FFF7BD
:1032B00057FE0020FFF754FE0020FFF751FE5A2072
:1032C000FFF74EFE5A20FFF74BFE5A20FFF748FE4D
:1032D0005A20FFF745FE5A20FFF742FE01200A4917
:1032E000C1F88C011020FDF75BF810BD0010024002
:1032F0000010014000080140A20A0020840122427F
:1033000090012142000021420000224212010020CF
:10331000100100201401002010B5FFF72BFFFFF76C
:1033200029FFFFF727FFFFF744FFFFF76DFFFFF7C8
:10333000B2FF10BD10B50E48007898B10720FFF716
:10334000E8FE0C4908600820FFF7E3FE0A49086020
:103350000520FFF7DEFE094908600620FFF7D9FEC9
:1033600007490860FFF7B2FE0649086010BD00007B
:1033700079000020C4000020C8000020CC000020FC
:10338000D0000020D40000202DE9F04704460E466E
:103390001546FE49284607F065FE824684F000493E
:1033A0003146484607F05EFC8046514607F062FF12
:1033B000074607F0BBFDF6490860F449284607F0C8
:1033C00051FE80463146204607F04CFC814641467E
:1033D00007F050FF074607F0A9FDEE490860EB49EA
:1033E000284607F03FFE824684F0004931464846B1
:1033F00007F038FC8046514607F034FC074607F0DA
:1034000095FDE5490860E149284607F02BFE804616
:103410003146204607F026FC8146414607F022FC53
:10342000074607F083FDDD490860BDE8F0872DE918
:10343000F04704460E461546D449284607F012FECA
:10344000824684F000493146484607F00BFC80462E
:10345000514607F00FFF074607F068FDD0490860A6
:10346000CA49284607F0FEFD80463146204607F04F
:10347000F9FB8146414607F0FDFE074607F056FD81
:10348000C8490860C149284607F0ECFD824684F02F
:1034900000493146484607F0E5FB8046514607F0B3
:1034A000E1FB074607F042FDBF490860B7492846DF
:1034B00007F0D8FD80463146204607F0D3FB814611
:1034C000414607F0CFFB074607F030FDB7490860DB
:1034D000BDE8F08770B504460020002C06DD2518F5
:1034E000B34E35800025B34E356007E004F5E15555
:1034F0002D1AAF4E35800125AE4E3560002909DD0D
:10350000C1F5E1552D1AAA4E361D35800125AA4E6A
:10351000356007E04D420544A54E361D3580002537
:10352000A54E3560002A0ADDC2F5E1552D1AA04EE0
:103530000836358001259F4E361D356008E055421E
:1035400005449B4E0836358000259A4E361D356061
:10355000002B08DD1D18964E0C3635800025964E42
:10356000361D356009E003F5E1552D1A904E0C36F5
:1035700035800125904E361D356070BD8F49096834
:103580004242914202DA41428C4A11608B490968F9
:10359000814201DD894908608949096842429142B6
:1035A00002DA4142864A116085490968814201DD9B
:1035B00083490860834909684242914202DA4142E4
:1035C000804A11607F490968814201DD7D490860B8
:1035D0007D4909684242914202DA41427A4A1160C9
:1035E00079490968814201DD7749086070472DE912
:1035F000F05F04460D46601B744908600846006889
:1036000007F0D0FC834672480168584607F02AFD4F
:1036100080466E4909686F4A1268881A07F0C2FC32
:1036200083466D480168584607F01CFD81464146B7
:1036300007F018FB07466948006807F0B3FC8246AC
:10364000394607F00FFB064607F070FC6349086037
:1036500008460068B0F5E15F02DD4FF4E150086014
:103660005E48006810F5E15F02DA5D485B4908607A
:10367000564800685749086058480068BDE8F09F00
:103680002DE9F05F04460D46601B56490860084668
:10369000006807F087FC83464D480168584607F0EC
:1036A000E1FC80464F4909684F4A1268881A07F0C2
:1036B00079FC834648480168584607F0D3FC8146A8
:1036C000414607F0CFFA07464848006807F06AFC11
:1036D0008246394607F0C6FA064607F027FC4349FA
:1036E000086008460068B0F5E15F02DD4FF4E15084
:1036F00008603E48006810F5E15F02DA38483B494F
:103700000860384800683849086038480068BDE8F3
:10371000F09F2DE9F05F04460D46601B34490860B8
:103720000846006807F03EFC834629480168584671
:1037300007F098FC80462E4909682E4A1268881ABC
:1037400007F030FC834624480168584607F08AFC9D
:103750008146414607F086FA07462748006807F089
:1037600021FC8246394607F07DFA064607F0DEFB6B
:103770002149086008460068B0F5E15F02DD4FF4BA
:10378000E15008601C48006838E000003333F33E25
:103790004C00002050000020540000205800002061
:1037A000280000202C0000203000002034000020E1
:1037B0003434014090012242808121423C000020AB
:1037C000400000204400002048000020700100203C
:1037D000B800002078010020B4000020740100200F
:1037E000E0E3FFFF640100206C010020680100207D
:1037F00058010020600100205C01002010F5E15F0D
:1038000002DAFE48FE490860FE480068FE4908608A
:10381000FB480068BDE8F09F2DE9F05F04460D46C7
:10382000601BFA4908600846006807F0BBFB834646
:10383000F7480168584607F015FC8046F3490968C7
:10384000F44A1268881A07F0ADFB8346F248016813
:10385000584607F007FC8146414607F003FA074641
:10386000EE48006807F09EFB8246394607F0FAF9F9
:10387000064607F05BFBE949086008460068B0F5BA
:10388000E15F02DD4FF4E1500860E448006810F5A4
:10389000E15F02DAD948E1490860DC480068DD49A7
:1038A0000860DE480068BDE8F09F30B5DC4C246855
:1038B0004542AC4202DA4442D94D2C60D84C2468CF
:1038C000844201DDD64C2060D64C24684D42AC4287
:1038D00002DA4C42D34D2C60D24C24688C4201DD7C
:1038E000D04C2160D04C24685542AC4202DA54429C
:1038F000CD4D2C60CC4C2468944201DDCA4C226032
:10390000CA4C24685D42AC4202DA5C42C74D2C606E
:10391000C64C24689C4201DDC44C236030BD014686
:10392000002901DA484200E0084670472DE9F04FCF
:1039300089B0BF48006807F069F98246BD480CC8E5
:10394000504607F079F804460D46BB48006807F07A
:103950005DF98246B9480CC8504607F06DF8064636
:103960000F46B748006807F051F98246B5480CC8C1
:10397000504607F061F880468946002213462046EB
:10398000294606F061FD0DD1002213463046394626
:1039900006F05AFD06D1002213464046494606F07D
:1039A00053FD26D042464B464046494606F01EFE91
:1039B00032463B46CDE904013046394606F016FE54
:1039C00022462B46CDE900012046294606F00EFE90
:1039D0008246DDE9002306F023FBCDE90201DDE9A3
:1039E000042306F01DFBCDE9060106F0C1FA964A54
:1039F00003C2002213462046294606F025FD0DD1BC
:103A0000002213463046394606F01EFD06D100223C
:103A100013464046494606F017FD12D04046494637
:103A200006F0CCFA82463046394606F0C7FA83469D
:103A30002046294606F0C2FA524659460790FFF73B
:103A4000F6FC82480068FFF76AFF8149096848432D
:103A5000019006F07BFDCDE902017B480CC802987D
:103A600006F09AFB824606F02BFD07907948006825
:103A7000FFF755FF7649096800FB01FA504606F04A
:103A800065FDCDE9000170480CC8009806F084FB84
:103A9000CDE9020106F014FD06906F480068FFF7BB
:103AA0003EFF6B4909684843019006F04FFDCDE9A0
:103AB000020165480CC8029806F06EFB824606F0CB
:103AC000FFFC059065480068FFF729FF6049096819
:103AD0004843019006F03AFD82465B480CC85046C8
:103AE00006F05AFBCDE9020106F0EAFC049005A9B4
:103AF0000EC9FFF7DAFE4E48006807F087F84D4A16
:103B000003C24D48006807F081F84C4A03C24C4894
:103B1000006807F07BF84B4A03C209B0BDE8F08F9C
:103B20002DE9F04704460D46601B07F03BFA4C496F
:103B30000860084601684B48006807F093F8494957
:103B4000086049494748006807F058FB02D24748D7
:103B50004449086046494348006807F04FFA02D2DA
:103B6000444840490860444801683D48006807F0FF
:103B700081FB804641480168404607F073FA0646DB
:103B80003F494048006807F0DBF882463548016845
:103B9000504607F067FA8046314801683A480068A5
:103BA00007F060FA8146414607F05CF80746314667
:103BB00007F058F835490860294800682E49086020
:103BC0003248006807F0B2F9BDE8F0872DE9F04708
:103BD00004460D46601B07F0E5F92D4908600846CC
:103BE00001682C48006807F03DF82A4908601E4922
:103BF0002848006807F002FB51D24DE0E0E3FFFFE8
:103C00005C01002058010020600100204C010020D0
:103C1000B800002054010020B40000205001002012
:103C20003C0000204000002044000020480000200C
:103C30009C000020C0010020A0000020C80100203E
:103C4000A4000020D0010020D80100203400002072
:103C5000BC000020300000202C00002028000020A4
:103C6000AC010020B40100200050C34700401C46B6
:103C70000050C3C700401CC6B8010020B00000209F
:103C80000000C842AC000020A8000020B0010020C5
:103C90009C010020A4010020FD48FE490860FE4967
:103CA000FC48006807F0AAF902D2FC48F94908600C
:103CB000FB480168FB48006807F0DCFA8046FA48D8
:103CC0000168404607F0CEF90646F849F848006812
:103CD00007F036F88246EF480168504607F0C2F90F
:103CE0008046F0480168F348006807F0BBF9814658
:103CF000414606F0B7FF0746314606F0B3FFEE49EE
:103D00000860E8480068E6490860EB48006807F08A
:103D10000DF9BDE8F0872DE9F04704460D46601B1C
:103D200007F040F9E549086008460168E448006882
:103D300006F098FFE2490860E249E148006807F0B0
:103D40005DFA02D2D248DE490860D349DC480068F7
:103D500007F054F902D2D148D9490860DA4801681D
:103D6000D648006807F086FA8046CF48016840468A
:103D700007F078F90646CD49CD48006806F0E0FF27
:103D80008246CF480168504607F06CF98046CB4820
:103D90000168C848006807F065F98146414606F0A9
:103DA00061FF0746314606F05DFFC8490860C34819
:103DB0000068C5490860C548006807F0B7F8BDE865
:103DC000F0872DE9F04704460D46601B07F0EAF83E
:103DD000BF49086008460168BE48006806F042FF17
:103DE000BC490860B749BB48006807F007FA02D22F
:103DF000A748B8490860A849B648006807F0FEF827
:103E000002D2A648B3490860B3480168B0480068C8
:103E100007F030FA8046A4480168404607F022F9CE
:103E20000646A249A248006806F08AFF8246A948D1
:103E30000168504607F016F98046A54801689D487C
:103E4000006807F00FF98146414606F00BFF074670
:103E5000314606F007FFA14908609D4800689E4969
:103E600008609E48006807F061F8BDE8F0872DE91A
:103E7000F04704464FF07C5A4FF00109002C71D1F5
:103E80009748007809286ED2DFE800F07F051223FA
:103E900030414E5F6E0000209249086051469248C2
:103EA000006806F0DFFE904908604FF001098BE0E2
:103EB00051468C48006806F0D5FE8A490860514694
:103EC0008948006806F0CEFE874908604FF0010976
:103ED0007AE051468348006806F0C4FE81490860D4
:103EE0000020814908604FF001096DE051467D488E
:103EF000006806F0B7FE7B49086051467A480068C2
:103F000007F0B8F9784908604FF001095CE000203B
:103F10007449086051467448006807F0ABF972496B
:103F200008604FF001094FE051466E48006807F005
:103F3000A1F96C49086051466B48006807F09AF98E
:103F4000694908604FF001093EE051466548006844
:103F500007F090F9634908600020634908604FF05A
:103F6000010931E00EE110E051465E48006807F0BB
:103F700081F95C49086051465B48006806F072FEB2
:103F8000594908604FF001091EE04FF000095548FB
:103F9000006806F03BFE0746544A554B06F0FCF815
:103FA000054606F00BF84F4908604F48006806F0D8
:103FB0002DFE07464D4A4E4B06F0EEF8054605F03D
:103FC000FDFF4949086000BF00BFB9F1000F23D1D0
:103FD0004848007801280AD151464748006807F050
:103FE00049F94549086000204449086014E0444804
:103FF000007801280AD151463F48006806F032FE99
:104000003D49086000203D49086005E000203A492C
:1040100008603C4839490860B9F1010F06D1002019
:1040200034490870364908703349086036480068DA
:10403000404206F0B7FF05462A480168284607F0C7
:10404000DDF806D230480068404206F0ABFF254953
:1040500008602D48006806F0A5FF05462148016864
:10406000284606F0CBFF05D22748006806F09AFFE5
:104070001C49086024480068404206F093FF05464A
:1040800019480168284607F0B9F845D21E483DE0B6
:1040900000401C46A40100200050C3C700401CC6BD
:1040A000A80100209C010020B00000200000C842B0
:1040B000AC000020A8000020A00100208C010020FE
:1040C000940100200050C347980100209001002077
:1040D0007C01002084010020880100208001002054
:1040E000020000209C000020A0000020CDCCCCCC01
:1040F000CCCCF03F00000020A400002044010020B0
:10410000010000206F12833BBC0000200068404289
:1041100006F048FFFE490860FE48006806F042FFCE
:104120000546FB480168284606F068FF05D2F948B5
:10413000006806F037FFF6490860F648006840421C
:1041400006F030FF0546F4480168284607F056F8A7
:1041500006D2F0480068404206F024FFEE490860AD
:10416000EC48006806F01EFF0546EB48016828464B
:1041700006F044FF05D2E748006806F013FFE64961
:104180000860E0E0012CFCD1E44800780B286FD2F5
:10419000DFE800F0D7061632425E6F8B9BB7C70090
:1041A000DF48006806F0FEFE0546D948016828464B
:1041B00006F058FDD64908600120DA490870C1E0D0
:1041C000D748006806F0EEFE0546D7480168284645
:1041D00006F048FDD44908600220D2490870D04852
:1041E000006806F0DFFE0546C9480168284606F06B
:1041F00039FDC7490860A5E0C948006806F0D2FE4D
:104200000546C9480168284606F02CFDC6490860E5
:104210000320C449087095E0C148006806F0C2FE5A
:104220000546C1480168284606F01CFDBE490860E5
:104230000420BC490870BA48006806F0B3FE054681
:10424000B3480168284607F00AF8B149086079E0E8
:10425000B348006806F0A6FE0546AD48016828464A
:1042600006F0FDFFAA4908600520AE49087069E024
:1042700067E0AB48006806F095FE0546AA4801686D
:10428000284606F0ECFFA84908600620A5490870FA
:10429000A348006806F086FE05469D48016828464A
:1042A00006F0DDFF9A4908604CE09D48006806F082
:1042B00079FE05469C480168284606F0D0FF9A49D9
:1042C00008600720974908703CE09548006806F0B0
:1042D00069FE054694480168284606F0C0FF9249E9
:1042E000086008208F4908708D48006806F05AFE63
:1042F000054687480168284606F0B4FC84490860F2
:1043000020E08748006806F04DFE054682480168B7
:10431000284606F0A4FF80490860092081490870FA
:1043200010E07F48006806F03DFE05467A480168C7
:10433000284606F097FC784908600A2079490870F9
:1043400000E000BF00BF7448026871480168764809
:104350000068FFF719F8BDE8F087014640F6AC02A7
:10436000914215DA01200022704B1A801B1D1A8021
:104370001B1D1A801B1D1A806D4B1A606D4BC3F8F4
:1043800080216B4B1B1D1A606A4BC3F8842100E02F
:10439000002070472DE9F84F14276748007800285F
:1043A0006FD166480078012803D06548007801285D
:1043B00068D164480078012846D16248C07900F08D
:1043C000040008B9012401E04FF0FF345D48C079D2
:1043D00000F0020008B9012501E04FF0FF3559480F
:1043E000C07900F0010008B9012601E04FF0FF3666
:1043F00054498A78497802EB012101FB04F006F068
:10440000D1FD494908604F490A79C97802EB012179
:1044100001FB05F006F0C6FD3D49086049498A796F
:10442000497902EB012101FB06F006F0BBFD3A4998
:10443000086008460268364801683B480068FEF795
:10444000A3FF0020404908603E48007802283BD185
:104450003C48C07900F0080008B9012401E04FF0A1
:10446000FF343848C07900F0040008B9012501E0A4
:104470004FF0FF353348C07900F0020018B901262B
:1044800003E0A8E021E04FF0FF362E48C07900F0AD
:10449000010010B94FF0010B01E04FF0FF3B29483C
:1044A0004078604329490860264880786843284955
:1044B00008602448C0787043264908602148007984
:1044C00000FB0BF024490860D4E024480078012860
:1044D000FAD123480068A0F1800822480068A0F1C2
:1044E000800921480068A0F1800A7842804503DDF8
:1044F000B84501DA4FF000087842814503DDB9453F
:1045000001DA4FF000097842824532DDBA452DE0EC
:10451000A0000020BC000020A40000200200002019
:10452000C0000020390100209C00002034340140EC
:104530009001224200802142660000207700002086
:104540007800002067000020440100204C0000207B
:104550005000002054000020580000207900002066
:10456000C4000020C8000020CC00002001DA4FF079
:10457000000AFE48006808FB00F0C82190FBF1F03B
:10458000009006F00FFDFA490860C9F10000F749F4
:1045900009684843C82190FBF1F0009006F002FD45
:1045A000F4490860CAF10000F04909684843C8218D
:1045B00090FBF1F0009006F0F5FCEF49086008462A
:1045C0000268EC480168EA480068FEF7DDFE00205A
:1045D000EA4908604EE0EA48007801284AD1E948F3
:1045E0000078012846D1E748C07900F0040008B9F6
:1045F000012401E04FF0FF34E248C07900F00200EE
:1046000008B9012501E04FF0FF35DE48C07900F020
:10461000010008B9012601E04FF0FF36D9498A7838
:10462000497802EB012101FB04F006F0BBFCD04904
:104630000860D4490A79C97802EB012101FB05F031
:1046400006F0B0FCCB490860CE498A79497902EB83
:10465000012101FB06F006F0A5FCC74908600846E9
:104660000268C4480168C2480068FEF78DFE002059
:10467000C2490860BDE8F88F10B56420FCF752FC11
:104680000446022C07D1C048007808B9012000E098
:104690000020BD49087010BD70B5BC4800680028F6
:1046A0007ED14FF40040BA490860BA48007808B992
:1046B000012000E00020B7490870B74800780128C1
:1046C0000BD1B6480078401CC0B2B44908700A2823
:1046D00003D100200870B0490870AE480078012866
:1046E00015D1AF48007860B9AE48007848B9AE48F7
:1046F0000078012805D1A348AC490A6802604968DE
:10470000416003F0DFF9FFF7B7FF002070BD022022
:10471000FDF731FA142190FBF1F0A5490860A54896
:10472000006809680844A34908600320FDF723FADC
:10473000142190FBF1F0A0490860A04800680968C6
:1047400008449E4908600420FDF715FA40421421F0
:1047500090FBF1F09A4908609A480068096808449B
:10476000984908600520FDF706FA4042142190FBA5
:10477000F1F0954908609548006809680844934934
:10478000086003F09FF96420FCF78CFBFCF75FFFE7
:10479000054606F007FC04468D480168204600E007
:1047A000BAE006F05FFA8A4908604FF07E51894806
:1047B000006806F057FA874904460860864906F003
:1047C00081FB0ED184498248006806F0B9FA04469C
:1047D00006F0ACFB8149086000207D4908607D49F6
:1047E00008607F480068042807D101206D490870DF
:1047F00000207C4908706C4908707A4800780128CC
:1048000007D069480078012803D06648007801285D
:1048100001D1FFF7BFFD55480068002806DD534869
:1048200000680F2802DA0F20504908606B480068C2
:10483000FFF793FD00286FD15148007868BB6948A5
:10484000007848B95848007830B95648007818B907
:104850004B480078FFF70BFB634801685448006839
:10486000FEF7DAFF61490860614801685248006854
:10487000FEF74FFF5F4908605F48016850480068D5
:10488000FEF7FEFE5D4908605D4801684E4800681D
:10489000FEF7ADFE5B490860BEE05248007880B983
:1048A0004148007868B93F48007850B956480078C8
:1048B00018B9FCF7BCF95549087031480078FFF782
:1048C000D6FA494801683B480068FFF77AFA0012B7
:1048D000464908604648016838480068FFF71BFAF7
:1048E0000012444908604448016836480068FFF7F0
:1048F0006DF9001241490860414801683348006879
:10490000FFF70EF900123F4908601E4800780228A0
:1049100003D0FFF70BF807E08CE014480368026847
:1049200001680068FEF7C1FF304800684142204836
:104930000068FEF771FF2D4908602E48006841426B
:104940001D480068FEF7E5FE2A4908602B4800680C
:1049500041421B480068FEF793FE28490860294839
:10496000006841421848006852E00000BC00002086
:104970009C000020A0000020A40000204401002092
:104980006600002067000020040000203C812142D6
:10499000140401403801002065000020640000205C
:1049A0007A00002079000020780000206F000020AD
:1049B00008000020180000200C0000201C0000202F
:1049C00010000020200000201400002024000020FF
:1049D000400100203C0100200000C8425C00002093
:1049E000D4000020770000204C0000203C00002074
:1049F000500000204000002054000020440000200F
:104A000058000020480000208D00002002000020F7
:104A1000FEF7EDFD0849086041F6F420FEF7AEFD13
:104A200005480368054802680548016805480068AC
:104A3000FEF750FD002069E64800002044000020F9
:104A4000400000203C00002038B50446FB4890F8A8
:104A50002400C0B114B10220009001E000200090B9
:104A6000F64A1268D17BF54A526810786B460122EB
:104A7000FDF7EEF910B14FF0FF3038BD9DF8001092
:104A8000EE48417423E0ED48807A10B94FF0FF30D2
:104A9000F3E724B1E948407C08B10020EDE714B108
:104AA0000120009001E000200090E44A1268D17BD0
:104AB000E24A526810786B460122FDF7C9F910B13D
:104AC0004FF0FF30D9E79DF80010DC48417400201A
:104AD000D3E738B5002419E0D8480068C07AA0426E
:104AE00004D0D6480068407DA04200D10CE0D349F4
:104AF000496808786B4601222146FDF70BFA10B190
:104B00004FF0FF3038BD00BF601CC4B2CB484068D6
:104B10000079A042E0DC0020F4E770B504460D46C1
:104B2000C6480068C07AA04204D0C4480068407DEE
:104B3000A04202D14FF0FF3070BDC04840680079FC
:104B4000A04202DC4FF0FF30F6E7BC494968087824
:104B50002B4601222146FDF7DDF9EDE738B5044685
:104B6000B64890F82300A04201D1002038BD14B10E
:104B70003020009001E000200090B048807C20B1FF
:104B80009DF8000040F002000090AC4890F8220030
:104B900020B19DF8000040F080000090A74A126804
:104BA000117DA64A526810786B460122FDF750F934
:104BB00010B14FF0FF30D9E7A04880F82340002023
:104BC000D4E738B5044604F0700010B1012000901D
:104BD00005E014B10020009001E040200090974AC9
:104BE0001268917C954A526810786B460122FDF755
:104BF0002FF920B1002191488172481E38BD9DF8DF
:104C0000000020F040018D4801730020009004F066
:104C1000400020B99DF8000040F00400009004F02E
:104C2000200020B99DF8000040F00200009004F040
:104C3000100020B99DF8000040F00100009004F041
:104C4000080020B99DF8000040F0380000907B4A31
:104C50001268D17C794A526810786B460122FDF7C0
:104C6000F7F820B1002175488172481EC6E724B1CB
:104C7000082C02D00020FFF771FF704884720021D9
:104C800001753220FBF7A8FB0020B7E738B50446D2
:104C90006A48807CA04201D1002038BD002C46D05B
:104CA000664A12681179654A526810786B4601228B
:104CB000FDF730F910B14FF0FF30EEE79DF800003E
:104CC00020F0200000905D4A126811795B4A52681A
:104CD00010786B460122FDF7BBF810B14FF0FF30A2
:104CE000DBE70320FBF778FB02200090534890F8A5
:104CF000220020B19DF8000040F0800000904F4855
:104D000090F8230020B19DF8000040F030000090A2
:104D10004A4A1268117D494A526810786B4601224E
:104D2000FDF796F8002851D04FF0FF30B5E7434A21
:104D300012681179414A526810786B460122FDF7DA
:104D4000E9F810B14FF0FF30A7E73C48807A00F057
:104D5000010028B19DF8000040F02000009004E020
:104D60009DF8000020F020000090344A126811796C
:104D7000324A526810786B460122FDF769F810B18B
:104D80004FF0FF3089E70320FBF726FB2B4890F814
:104D9000220010B18020009001E000200090274800
:104DA00090F8230020B19DF8000040F03000009002
:104DB000224A1268117D214A526810786B460122FE
:104DC000FDF746F810B14FF0FF3066E71B488474DA
:104DD000002062E708B51948807A10B94FF0FF301B
:104DE00008BD00200090154A1268D17B134A526812
:104DF00010786B460122FDF72BF810B14FF0FF3011
:104E0000EEE70E4A126851790C4A526810786B46E8
:104E10000122FDF71DF810B14FF0FF30E0E7074A1F
:104E200012681179054A526810786B460122FDF725
:104E30000FF828B14FF0FF30D2E70000E00100206A
:104E4000F74890F82400002850D00C200090F44A35
:104E500012681179F24A526810786B460122FCF709
:104E6000F7FF10B14FF0FF30BAE7C0200090EC48D8
:104E7000807A00F0010020B19DF8000040F0200091
:104E80000090E74A12681179E54A526810786B463B
:104E90000122FCF7DDFF10B14FF0FF30A0E7E04842
:104EA000407C10B10220009001E000200090DC4A1C
:104EB0001268D17BDA4A526810786B460122FCF7FF
:104EC000C7FF10B14FF0FF308AE700200090D44AAE
:104ED00012685179D24A526810786B460122FCF769
:104EE000B7FF002852D04FF0FF3079E70420009040
:104EF000CB4A12681179CA4A526810786B4601226F
:104F0000FCF7A6FF10B14FF0FF3069E7C448807C82
:104F100020B9C348807A00F0010010B94020009009
:104F200001E060200090BE4A12681179BC4A5268C4
:104F300010786B460122FCF78BFF10B14FF0FF3069
:104F40004EE7B748407C10B10120009001E00020FE
:104F50000090B34A1268D17BB14A526810786B4610
:104F60000122FCF775FF10B14FF0FF3038E7AC4A73
:104F700012685179AA4A52681078A94B103301225D
:104F8000FCF766FF10B14FF0FF3029E7002027E75C
:104F900070B50446002624F00104A14890F82400CE
:104FA00008B1002070BD9E48807A10B94FF0FF30E4
:104FB000F8E79B48057C807A2040994908740846A8
:104FC000007CA04202D04FF0FF3600E0002614B96A
:104FD0009348007D18B10120FFF736FD02E0002064
:104FE000FFF732FD3CB1FFF7F5FE20B18C480574A8
:104FF0004FF0FF30D6E73046D4E738B5044688484E
:10500000807A10B94FF0FF3038BDBC2C02DB012094
:10501000009015E0622C02DB0220009010E02A2CA8
:1050200002DB032000900BE0142C02DB0420009034
:1050300006E00A2C02DB0520009001E0062000902B
:105040007748C07A9DF80010884201D10020DBE744
:10505000734A12689178724A526810786B4601223E
:10506000FCF7F6FE10B14FF0FF30CDE79DF80010D1
:105070006B48C1720020C7E738B50446282C02DD12
:105080004FF0FF3038BDDCB90020FFF767FD00208E
:105090008DF8000007208DF80100614A1268917CAC
:1050A0005F4A526810786B460222FCF7D1FE10B1BD
:1050B0004FF0FF30E6E70021594801750020E1E795
:1050C0000120FFF74BFD20208DF80000012C06D1B8
:1050D00000208DF801000520FFF78FFF17E0052C59
:1050E00006DC01208DF801000520FFF786FF0EE0A9
:1050F000142C06DC02208DF801000A20FFF77DFF4A
:1051000005E003208DF801001420FFF776FF9DF8DD
:105110000100072101EB8010C0B28DF80100404A68
:105120001268917C3E4A526810786B460222FCF766
:105130008FFE10B14FF0FF30A4E70821384881728C
:1051400000210173012101750020FFF721FF0020DC
:1051500098E738B504463248807A10B94FF0FF30EE
:1051600038BD2F4890F8240010B14FF0FF30F7E71A
:105170002B48007D50B134B1282C04DCE0B2FFF79D
:105180007BFF0020ECE70020FFF776FF042C01DA1C
:10519000042404E0B4F57A7F01DD4FF47A744FF40F
:1051A0007A7090FBF4F0401EC0B200901C4A126866
:1051B00051781B4A526810786B460122FCF748FE72
:1051C00010B14FF0FF30CBE79DF80000401C4FF4CA
:1051D0007A7191FBF0F081B21148C1810146C98911
:1051E0004810FFF70AFF0020BAE738B504460C481C
:1051F000807A10B94FF0FF3038BD022C06D0042C55
:1052000007D0082C08D0102C0FD10BE00020009004
:105210000EE0082000900BE01020009008E0000055
:10522000E00100201820009002E04FF0FF30E3E79B
:1052300000BFF948407A9DF80010B0EBE10F01D1B2
:105240000020D9E7F44A1268D179F34A52681078FD
:105250006B460122FCF7FCFD10B14FF0FF30CBE7AD
:105260009DF80000C110EC4841720020C4E738B539
:105270000446E948807A10B94FF0FF3038BDFA2C67
:1052800009D0B4F5FA7F09D0B4F57A7F09D0B4F526
:10529000FA6F0CD108E0002000900BE0082000908D
:1052A00008E01020009005E01820009002E04FF088
:1052B000FF30E3E700BFD848007A9DF80010B0EB5C
:1052C000E10F01D10020D9E7D34A12689179D24A7F
:1052D000526810786B460122FCF7BAFD10B14FF00E
:1052E000FF30CBE79DF80000C010CB4908720020CA
:1052F000C4E71CB580208DF80000C74A1268917C75
:10530000C54A526810786B460122FCF7A1FD10B126
:105310004FF0FF301CBD6420FBF75EF800208DF8D5
:105320000000BD4A1268917CBB4A526810786B46F7
:105330000122FCF78DFD10B14FF0FF30EAE7B64ACD
:105340001268917DB44A526810786B460622FCF7C9
:10535000E1FD10B14FF0FF30DCE79DF80500C0071C
:10536000400F9DF8031001F0010140EA41009DF853
:10537000011001F0010140EA010494B1012C03D1B4
:105380000121A548C17431E0022C03D10021A248BB
:10539000C1742BE02146A1A003F040FB4FF0FF3089
:1053A000B8E79D4A1268D1789B4A526810786B46DC
:1053B0000122FCF7AFFD10B14FF0FF30AAE79DF8D6
:1053C000000000F00F042CB99E4803F027FB4FF0BB
:1053D000FF309FE7042C06D19BA003F01FFB0121A7
:1053E0008D48C17402E000218B48C174FF218A48B6
:1053F0008172FF2088490872FF2187484172C1727B
:105400004FF6FF71C181FF21017481740121017385
:1054100080F82210002180F82310417501751630A4
:10542000016041608160163880F8241080F82510F2
:10543000C1844FF4FA60FFF71AFF10B14FF0FF304C
:1054400068E70220FFF7D1FE10B14FF0FF3061E7AF
:105450002A20FFF7D2FD10B14FF0FF305AE732207B
:10546000FFF777FE10B14FF0FF3053E70020FFF752
:105470008FFD10B14FF0FF304CE70020FFF706FC26
:1054800010B14FF0FF3045E70020FFF79AFB0020F6
:1054900040E770477CB504460D465F48807A00F0CF
:1054A000700010B94FF0FF307CBD5B4A1268117B71
:1054B000594A526810786B460622FCF72BFD10B152
:1054C0004FF0FF30F0E79DF801009DF8001040EA32
:1054D000012000B220809DF803009DF8021040EAF0
:1054E000012000B260809DF805009DF8041040EA9C
:1054F000012000B2A08015B12846FFF7CAFF0020A6
:10550000D2E77CB504460D464348807A00F0080097
:1055100010B94FF0FF307CBD3F4A1268517B3E4AC4
:10552000526810786B460622FCF7F4FC10B14FF07D
:10553000FF30F0E79DF801009DF8001040EA0120DF
:1055400000B220809DF803009DF8021040EA01207F
:1055500000B260809DF805009DF8041040EA01202B
:1055600000B2A08015B12846FFF793FF0020D2E7D4
:105570002DE9FE4F05460C462748807A18B94FF0B2
:10558000FF30BDE8FE8F244A1268917B224A5268A0
:10559000107802AB0222FCF7BDFC10B14FF0FF30D7
:1055A000EFE79DF809009DF8081040EA012006B2D7
:1055B00014B12046FFF76DFF17494968C88805F008
:1055C00009FD154901904968B1F9080005F0EAFCA8
:1055D0008346304605F0E6FC5946009005F04AFE49
:1055E0008246019905F0ACFB81461F4905F03AFB64
:1055F00080464FF08F4105F035FD074605F096FCDB
:1056000028600020BDE710B588B004461CB94FF0F3
:10561000FF3008B010BD29E0E0010020556E737521
:1056200070706F7274656420736F667477617265F1
:105630002070726F64756374207265762025642E05
:105640000A00000078CC000848616C662073656E23
:105650007369746976697479207061727420666FF9
:10566000756E642E0D0A000000000C42206830B9EF
:10567000606820B9A06810B9002008B010BDFA49D0
:105680004968087806AB03221146FCF743FC10B1C9
:105690004FF0FF30F1E79DF81800082101EB2010D2
:1056A00000F00F00ADF800009DF8190001EB20108C
:1056B00000F00F00ADF802009DF81A0001EB201079
:1056C00000F00F00ADF8040020684100BDF90000B3
:1056D000403091FBF0F000B2ADF81000606841007E
:1056E000BDF90200403091FBF0F000B2ADF81200BD
:1056F000A0684100BDF90400403091FBF0F000B219
:10570000ADF81400D8494968087806AB062211465E
:10571000FCF700FC10B14FF0FF30AEE79DF8190028
:105720009DF8181040EA012000B2ADF808009DF87D
:105730001B009DF81A1040EA012000B2ADF80A00E3
:105740009DF81D009DF81C1040EA012000B2ADF844
:105750000C00BDF81000BDF80810084400B2ADF808
:105760001000BDF81200BDF80A10084400B2ADF8F0
:105770001200BDF81400BDF80C10084400B2ADF8DA
:105780001400BDF81000000A8DF81800BDF81000D4
:10579000C0B28DF81900BDF81200000A8DF81A0089
:1057A000BDF81200C0B28DF81B00BDF81400000A4D
:1057B0008DF81C00BDF81400C0B28DF81D00AA4978
:1057C0004968087806AB06221146FCF741FB10B188
:1057D0004FF0FF3051E700204FE70146A248007A22
:1057E00030B1012807D0022809D003280FD10AE0E0
:1057F000FA2008800EE04FF4FA7008800AE04FF4B7
:105800007A70088006E04FF4FA60088002E0002019
:10581000088000BF00BF0020704701469248407AD0
:1058200030B1012807D0022808D003280CD108E0A5
:10583000022008700BE00420087008E008200870BF
:1058400005E01020087002E04FF0FF30704700BF05
:105850008548C07C18B108784006000E087000200A
:10586000F4E701468048C07A082817D2DFE800F044
:105870001704070A0D101318BC20088013E06220DB
:10588000088010E02A2008800DE0142008800AE03B
:105890000A20088007E00520088004E000BF00BF60
:1058A0000020088000BF00BF0020704701466E48FE
:1058B00090F8240010B14FF0FF3070476A48C0895B
:1058C00008800020F9E7014600200880401E70474C
:1058D00001464FF0FF30704701466348007A30B10F
:1058E000012807D0022808D003280CD108E05F481F
:1058F00008600BE05E48086008E05E48086005E06C
:105900005D48086002E04FF0FF30704700BF0020A4
:10591000FBE701465448407A30B1012808D00228FC
:105920000AD0032810D10BE04FF4804008800EE02D
:1059300041F69C7008800AE04FF48050088006E031
:105940004FF40060088002E04FF0FF30704700BF66
:105950004548C07C10B10888401008800020F5E759
:1059600001464148007C08700020704701463E48CF
:10597000807A10B10120087001E00020087000203A
:10598000704738B504463848807A10B94FF0FF3078
:1059900038BD354A1268117C334A526810786B461C
:1059A0000222FCF7B7FA10B14FF0FF30F0E79DF894
:1059B00001009DF8001040EA012000B22080002084
:1059C000E6E72DE9FE4F0746884692461D46DDF87C
:1059D00030B000260024244890F8240010B1601E46
:1059E000BDE8FE8F002028701F48807A10B94FF064
:1059F000FF30F5E71C48007C10B94FF0FF30EFE7AF
:105A00001948007C00F0400008B1B01CC6B216482E
:105A1000007C00F0200008B1B01CC6B21248007C27
:105A200000F0100008B1B01CC6B20F48007C00F0B6
:105A3000080008B1B01DC6B20B4A1268917A0A4A32
:105A4000526810786B460222FCF764FA10B14FF0EE
:105A5000FF30C5E79DF801009DF8001040EA0129DC
:105A6000B1450BDA0020BBE7E00100200000034352
:105A7000000083423333034233338341FC484068A0
:105A80004088B9EB600F17DDF94A1268517CF84A7B
:105A9000526810786B460122FCF73CFA10B14FF0C7
:105AA000FF309DE79DF8000000F0100020B1FFF7E7
:105AB00091F96FF0010093E75046FFF7EAFCEC4ADA
:105AC0001268D17AEA4A526810786B463246FCF77F
:105AD00021FA10B14FF0FF3082E799FBF6F0401E3B
:105AE0008BF8000000202870B4422AD0E048007CE7
:105AF00000F0080028B3601C1DF800001DF8041019
:105B000040EA012000B2A8F80000E01C1DF80010D7
:105B1000A01C1DF8000041EA002000B2A8F8020015
:105B2000601D1DF80010201D1DF8000041EA002036
:105B300000B2A8F80400287840F008002870A01DE2
:105B400084B2B44213D0CA48007C00F0400070B167
:105B5000601C1DF800001DF8041040EA012000B28E
:105B60003880287840F040002870A01C84B2B442ED
:105B700013D0BF48007C00F0200070B1601C1DF8FD
:105B800000001DF8041040EA012000B27880287857
:105B900040F020002870A01C84B2B44213D0B44856
:105BA000007C00F0100070B1601C1DF800001DF8B2
:105BB000041040EA012000B2B880287840F01000BC
:105BC0002870A01C84B200200AE7F8B504460F46EE
:105BD0001646A74890F8240010B94FF0FF30F8BDE2
:105BE000A348807A10B94FF0FF30F8E7A04A126856
:105BF000917A9F4A526810786B460222FCF78AF924
:105C000010B14FF0FF30EAE79DF801009DF8001059
:105C100040EA0125A54203DA00203070401EDEE78D
:105C2000934840684088B5EB600F17DD904A1268D2
:105C3000517C8F4A526810786B460122FCF76AF952
:105C400010B14FF0FF30CAE79DF8000000F01000DF
:105C500020B1FFF7BFF86FF00100C0E7E2B2844B5C
:105C60001B68D97A824B5B6818783B46FCF752F97F
:105C700010B14FF0FF30B2E795FBF4F0401E3070EA
:105C80000020ACE701467A4880F8221000207047D7
:105C90007CB5054676494968087801AB04220D2198
:105CA000FCF738F908B107207CBD9DF80700C0F368
:105CB00001109DF8041001F0E00140EAE1008DF8C8
:105CC00000009DF80700C0F381009DF8051001F069
:105CD000E00140EAE1008DF801009DF8070000F0C6
:105CE00003009DF8061001F0E00140EAE1008DF8A4
:105CF000020000241CE01DF8040018B9002045F83B
:105D0000240013E05B4845F8240006E055F8240021
:105D1000594905F0A7F945F824001DF80400401E74
:105D2000C0B20DF804000028F0D100BF601CC4B25E
:105D3000032CE0DB0020B7E72DE9FE4F06460F46B7
:105D400000256846FFF7A4FF002442E056F824002F
:105D500057F82410A0EB010ABAF1000F01DB5146FD
:105D600001E0CAF10001084605F01CF983464FF036
:105D70008F4104F0E5FF80465DF82400002105F026
:105D8000A1F816D05DF82410404604F0D9FF8246F1
:105D90004FF07E5105F06EFA814629F0004A3748EF
:105DA000416A504605F02AFA12D20120A04005436C
:105DB0000EE03248C169404605F020F905D32F486E
:105DC000016A404605F01AFA02D20120A0400543BC
:105DD000641C032CBADB2846BDE8FE8F2DE9FC5F6E
:105DE00006460F46002522494968087801AB032280
:105DF0000D21FCF78FF810B10720BDE8FC9F9DF83E
:105E0000040000F01F008DF804009DF8050000F06C
:105E10001F008DF805009DF8060000F01F008DF8AA
:105E20000600002462E056F8240057F82410A0EB86
:105E3000010BBBF1000F01DB594601E0CBF1000182
:105E4000084605F0AFF84FF08F41009004F078FF5E
:105E5000814601A8005DC0B30849086805F0BAF89A
:105E600083465946064804F06BFF80460FE0000069
:105E7000E00100207B14AE3E1D5A843FDCBE0008CA
:105E800000B04C45FE49404605F0ECF8804601A8BC
:105E9000005D401EC0B201A908550028F2D141465C
:105EA000484604F04DFF83464FF07E5105F0E2F97D
:105EB00082462AF0004BF3488169584605F09EF966
:105EC00013D20120A04005430FE0FFE7ED48016930
:105ED000484605F093F805D3EA484169484605F07D
:105EE0008DF902D20120A0400543641C032C9ADBEB
:105EF000284682E72DE9F04F87B005460C469146CB
:105F000001208DF8100000208DF81100DE4A126883
:105F1000917CDD4A5268107804AB0222FBF798FFAF
:105F200020B14FF0FF3007B0BDE8F08FC820FAF77E
:105F300053FA00208DF81000D34A1268D17BD24A60
:105F40005268107804AB0122FBF782FF10B14FF0CA
:105F5000FF30E8E7CC4A12685179CB4A5268107892
:105F600004AB0122FBF774FF10B14FF0FF30DAE70A
:105F7000C54A1268917CC44A5268107804AB012269
:105F8000FBF766FF10B14FF0FF30CCE7BE4A126856
:105F9000D17DBD4A5268107804AB0122FBF758FF4F
:105FA00010B14FF0FF30BEE7B74A12681179B64A18
:105FB0005268107804AB0122FBF74AFF10B14FF092
:105FC000FF30B0E70C208DF81000AF4A126811794D
:105FD000AD4A5268107804AB0122FBF739FF10B1CB
:105FE0004FF0FF309FE70F20FAF7F6F9A648806AD6
:105FF000407A8DF81000A44A12689178A24A52683B
:10600000107804AB0122FBF723FF10B14FF0FF30F3
:1060100089E79D48806A007A8DF810009A4A1268D4
:106020005178994A5268107804AB0122FBF710FFAF
:1060300010B14FF0FF3076E7B9F1000F07D092486A
:10604000806A807A40F0E0008DF8100004E08E480D
:10605000806A807A8DF810008B4A126891798A4A9A
:106060005268107804AB0122FBF7F2FE10B14FF03A
:10607000FF3058E7B9F1000F07D08348806AC07A33
:1060800040F0E0008DF8100003E07E48C07A8DF803
:1060900010007D4A1268D1797B4A5268107804ABAF
:1060A0000122FBF7D5FE10B14FF0FF303BE7B9F10D
:1060B000000F02D0C820FAF78FF940208DF81000A9
:1060C000714A12681179704A5268107804AB012243
:1060D000FBF7BEFE10B14FF0FF3024E778208DF8BB
:1060E0001000694A12685179674A5268107804AB07
:1060F0000122FBF7ADFE10B14FF0FF3013E761490D
:106100008889FAF769F900208DF810005E4A126854
:1061100051795D4A5268107804AB0122FBF798FE72
:1061200010B14FF0FF30FEE6574A1268917A564A96
:106130005268107804AB0222FBF7ECFE10B14FF06E
:10614000FF30F0E69DF811009DF8101040EA012B99
:106150000C209BFBF0F0C6B20020A86068602860AD
:10616000A06060602060824665E0474A1268D17A8C
:10617000454A5268107804AB0C22FBF7CBFE10B1F5
:106180004FF0FF30CFE69DF811009DF8101040EA67
:10619000012000B2ADF808009DF813009DF8121020
:1061A00040EA012000B2ADF80A009DF815009DF804
:1061B000141040EA012000B2ADF80C00BDF908103F
:1061C000206808442060BDF90A10606808446060D7
:1061D000BDF90C10A0680844A0609DF817009DF858
:1061E000161040EA012000B2ADF800009DF8190039
:1061F0009DF8181040EA012000B2ADF802009DF8A9
:106200001B009DF81A1040EA012000B2ADF804000E
:10621000BDF90010286808442860BDF902106868BC
:1062200008446860BDF90410A8680844A8600AF131
:10623000010000F0FF0AB24597DB1248D0F800C019
:106240002868C117090441EA104107046246002387
:10625000384602F0BEFB32460023CDE9020102F0CF
:10626000B8FB28600748D0F800C06868C117090467
:1062700041EA1041070462460023384606E0000068
:1062800054E3853FDCBE0008E001002002F0A1FBE2
:1062900032460023CDE9020102F09BFB6860FE4814
:1062A000D0F800C0A868C117090441EA10410704EA
:1062B00062460023384602F08CFB32460023CDE9CB
:1062C000020102F086FBA860F348D0F804C0216800
:1062D000C817000440EA11480F04624600233846FC
:1062E000414602F076FB32460023CDE9020102F07E
:1062F00070FB2060E848D0F804C06068C11709044A
:1063000041EA1041070462460023384602F061FB6F
:1063100032460023CDE9020102F05BFB6060DE48FB
:10632000D0F804C0A068C117090441EA104107046D
:1063300062460023384602F04CFB32460023CDE98A
:10634000020102F046FBA060A068002804DDA068FE
:10635000A0F58030A06003E0A06800F58030A06068
:106360000020E0E538B50446CC4890F82400A0426F
:1063700001D1002038BD24B3C84890F8250010B9D9
:106380004FF0FF30F6E70020FEF75EFB0020FEF73F
:106390007DFCC249C88CFEF7DCFE00200090BF499E
:1063A000496808786B4601222321FBF751FD012142
:1063B000BA4880F824100120FEF746FBFEF70AFDDC
:1063C00013E00020FEF740FBB448007C0090B34986
:1063D000496808786B4601222321FBF739FD00212B
:1063E000AE4880F82410FEF7F5FC0020C2E72DE946
:1063F000F04F8DB083460F4602200C90A74890F8CE
:10640000240020B10020FFF7ADFF012600E00026A8
:1064100003A8FFF7E2F905A8FFF7FFF901A8FFF7C6
:1064200020FA02A8FFF742FA9C4890F80AA004A8B4
:10643000FFF796FA002407E0002239465846FFF796
:1064400059FD00B902E0641C022CF5DB00BF022CF0
:1064500001D1002528E0002407E0012206A909A8AF
:10646000FFF748FD00B902E0641C022CF5DB00BF19
:10647000022C01D1002517E006A93846FFF75CFC85
:1064800000F0FF0809A95846FFF7A8FC00F0FF0933
:106490000025B9F1000F01D145F00105B8F1000F59
:1064A00001D145F0020500BFFF207C490872FF21A1
:1064B0007A484172C1724FF6FF71C181FF2181722A
:1064C000017401210173BDF80C00FEF7D0FE9DF8A8
:1064D0001400FEF78AFEBDF80400FEF78EFDBDF83D
:1064E0000800FEF736FE5046FEF76BFB9DF81000E5
:1064F000FEF74EFD16B10120FFF734FF28460DB020
:10650000BDE8F08FF8B504460D46164616B94FF0B3
:10651000FF30F8BD6148807A10B94FF0FF30F8E7DE
:1065200020128DF80000E0B28DF801009DF8010006
:1065300028445A4949684989884202DD4FF0FF30B2
:10654000E7E7564A1268117E544A526810786B4643
:106550000222FBF77DFC10B14FF0FF30D9E7EAB221
:106560004E4B1B68597D4D4B5B6818783346FBF7E3
:106570006FFC10B14FF0FF30CBE70020C9E7F8B552
:1065800004460D46164616B94FF0FF30F8BD434895
:10659000807A10B94FF0FF30F8E720128DF8000034
:1065A000E0B28DF801009DF8010028443B4949689C
:1065B0004989884202DD4FF0FF30E7E7374A126829
:1065C000117E364A526810786B460222FBF740FC77
:1065D00010B14FF0FF30D9E7EAB2304B1B68597D5C
:1065E0002E4B5B6818783346FBF794FC10B14FF0E4
:1065F000FF30CBE70020C9E72DE9F04385B0054621
:106600000E4690469946254890F8250020B14FF057
:10661000FF3005B0BDE8F08316B94FF0FF30F8E762
:10662000002423E0281B102801DD102000E0281B97
:1066300087B2321939462046FFF764FF10B14FF098
:10664000FF30E6E701AA39462046FFF798FF10B170
:106650004FF0FF30DDE730193A4601A902F058FA51
:1066600010B16FF00100D4E7E01984B2AC42D9DB7D
:106670004FEA28208DF8000008F0FF008DF8010097
:10668000064A1268917E054A526810786B460222CB
:10669000FBF7DEFB38B103E0DCBE0008E0010020C0
:1066A0004FF0FF30B5E701218A4880F82510A0F8A7
:1066B00026900020ADE70146864890F82400087037
:1066C0000020704702464FF0FF30704701464FF000
:1066D000FF307047F8B505460F461446002C70D0C1
:1066E000B5F5FF5F01DDFF2605E0202D01DA01266B
:1066F00001E0C5F3471607B90127282C02DD4FF04A
:10670000FF30F8BD7348407D28BB724890F82400E4
:1067100038B10020FFF726FE01216E4880F82010D6
:1067200003E000216B4880F820106A481630FFF71C
:1067300054F868481830FFF770F866481A30FFF7C9
:1067400090F864481C30FFF7B1F86248817A81778D
:106750001F30FFF705F90020FEF776F90020FEF75D
:106760008BFC00208DF800005A4A12689178594A33
:10677000526810786B460122FBF76AFB10B14FF0AC
:10678000FF30BEE740208DF80000524A1268D17BEE
:10679000504A526810786B460122FBF759FB00B152
:1067A00065E08DF800608DF801704A4A1268117A30
:1067B000484A526810786B460222FBF749FB08B141
:1067C00055E047E00520F9F707FE4248407A0721E7
:1067D00001EBC000C0B28DF800003E4A1268D179CA
:1067E0003C4A526810786B460122FBF731FB00B13E
:1067F0003DE020208DF80000012C03D100208DF811
:1068000001000EE0052C03DC01208DF8010008E0FA
:10681000142C03DC02208DF8010002E003208DF827
:1068200001009DF80100072101EB8010C0B28DF836
:106830000100284A1268917C264A526810786B46FB
:106840000222FBF705FB00B111E00121214841754F
:10685000002056E71F4A1632002103E0505C00B1C9
:1068600005E0491C0C29F9D34FF0FF3049E7FF2020
:1068700018490872FF2117484172C1724FF6FF7123
:10688000C181FF2181720174012101730146887F5A
:10689000FEF797F90F49C88AFEF7E9FC0D49087E13
:1068A000FEF7A3FC0B49488BFEF7A7FB0949888B31
:1068B000FEF74FFC0749C87FFEF76AFB054890F8D2
:1068C000200010B10120FFF74DFD00210148417566
:1068D000002016E7E001002010B5C8234FF48062C5
:1068E000F74940F6F630FFF787FE10BD10B586B0C9
:1068F0000446F4A000680390F3A000680290F3A09F
:1069000000680190F2A00068009004F0030003A961
:10691000085C8DF8140003A8C4F3C101405C8DF835
:10692000150003A8C4F38111405C8DF8160004F033
:10693000030002A9085C8DF8100002A8C4F3C1018D
:10694000405C8DF8110002A8C4F38111405C8DF801
:10695000120005AA032140F22640FFF7D3FD18B12B
:106960004FF0FF3006B010BD04AA032140F22A40C8
:10697000FFF7C8FD10B14FF0FF30F3E70198059025
:106980000098049004F0040058B19DF8140040F001
:1069900001008DF814009DF8100040F001008DF802
:1069A000100004F0200058B19DF8150040F00100DF
:1069B0008DF815009DF8110040F001008DF81100D0
:1069C00004F4807058B19DF8160040F001008DF875
:1069D00016009DF8120040F001008DF8120005AA83
:1069E00003214FF48860FFF78DFD10B14FF0FF30A9
:1069F000B8E704AA032140F23140FFF783FD10B14C
:106A00004FF0FF30AEE7B34804810020AAE71FB57E
:106A10000446B048007A00F0030054F820000190CA
:106A2000AC48007A00F0040010B101984042019097
:106A3000A848007AC0F3C10054F820000290A5488D
:106A4000007A00F0200010B1029840420290A14864
:106A5000007AC0F3811054F8200003909D4800890B
:106A600000F4807010B10398404203909A49019855
:106A700080FB0101800F40EA810001909649029855
:106A800080FB0110820042EA9170029092490398C3
:106A900080FB0110820042EA917003900198000E81
:106AA0008DF800000198000C8DF801000198000A93
:106AB0008DF802000198C0B28DF803006A460421E7
:106AC0004FF47470FFF71EFD18B14FF0FF3004B0A3
:106AD00010BD0298000E8DF800000298000C8DF891
:106AE00001000298000A8DF802000298C0B28DF8E9
:106AF00003006A4604214FF47570FFF703FD10B1DF
:106B00004FF0FF30E3E70398000E8DF80000039884
:106B1000000C8DF801000398000A8DF8020003981C
:106B2000C0B28DF803006A4604214FF47670FFF777
:106B3000E9FCCCE770B588B0064601A8FEF7E9FE8F
:106B4000BDF804000021C90341EA5045C40361486F
:106B5000007A00F0030056F8200005905D48007AA6
:106B600000F0040010B10598404205905948007AA1
:106B7000C0F3C10056F8200006905648007A00F095
:106B8000200010B10698404206905248007AC0F3A7
:106B9000811056F8200007904E48008900F480705C
:106BA00010B10798404207900598C117A0FB042335
:106BB00001FB043100FB0510810041EA9270059051
:106BC0000698C117A0FB042301FB043100FB05104C
:106BD000810041EA927006900798C117A0FB042338
:106BE00001FB043100FB0510810041EA927007901F
:106BF0000598000E8DF808000598000C8DF8090026
:106C00000598000A8DF80A000598C0B28DF80B00AF
:106C10000698000E8DF80C000698000C8DF80D00FB
:106C20000698000A8DF80E000698C0B28DF80F0085
:106C30000798000E8DF810000798000C8DF81100D1
:106C40000798000A8DF812000798C0B28DF813005B
:106C500002AA0C214FF42570FFF754FC08B070BD58
:106C600030B585B004461DA207CA02AB07C3C82CC5
:106C700003DD4FF0FF3005B030BDC82090FBF4F0CD
:106C8000401E85B2280A8DF80000E8B28DF8010098
:106C90006A46022140F21620FFF734FC10B14FF093
:106CA000FF30E8E702AA0C2140F6C120FFF72AFCDA
:106CB00010B14FF0FF30DEE7064884810020DAE7AC
:106CC00004BF00084CCD6C000CC92C003656760071
:106CD00026466600AC0A002009E3CA02FEF2ABC4F5
:106CE000AAF1DFDFBBAFDFDF0146FC488089088007
:106CF000002070472DE9FC4706460F4606F00700C6
:106D000010B1B7F5C86F03DD4FF0FF30BDE8FC8769
:106D1000384604F05FF98146F14904F011F88046E5
:106D20006846FEF77AFD9DF80000022806D0042888
:106D300016D0082826D0102848D135E04FF08D41D4
:106D4000404604F08FF9814604F00CF984B2E5491D
:106D5000404604F087F9814604F004F985B238E032
:106D60004FF08C41404604F07DF9814604F0FAF87A
:106D700084B2DD49404604F075F9814604F0F2F82A
:106D800085B226E04FF08B41404604F06BF9814616
:106D900004F0E8F884B2D549404604F063F981462E
:106DA00004F0E0F885B214E04FF08A41404604F068
:106DB00059F9814604F0D6F884B2CD49404604F032
:106DC00051F9814604F0CEF885B202E04FF0FF3071
:106DD0009CE700BF20128DF80400E0B28DF805009A
:106DE00028128DF80600E8B28DF8070006F00100C1
:106DF000A0B101AA02214FF4EA70FFF783FB10B1A2
:106E00004FF0FF3082E70DF1060202214FF492703D
:106E1000FFF778FB10B14FF0FF3077E706F0020084
:106E2000A0B101AA02214FF4EC70FFF76BFB10B187
:106E30004FF0FF306AE70DF1060202214FF4947023
:106E4000FFF760FB10B14FF0FF305FE706F0040082
:106E5000A0B101AA02214FF4EE70FFF753FB10B16D
:106E60004FF0FF3052E70DF1060202214FF4967009
:106E7000FFF748FB10B14FF0FF3047E7002045E730
:106E800038B504460020009004F0010020B19DF8C0
:106E9000000040F03000009004F0020020B19DF8A6
:106EA000000040F00C00009004F0040020B19DF8B8
:106EB000000040F0030000906A4601214FF4A470E6
:106EC000FFF720FB38BD38B50446012C01DA012458
:106ED00002E0042C00DD0424601EC0B200906A466B
:106EE000012140F24F10FFF70DFB38BD38B50446C5
:106EF000052094FBF0F085B228128DF80000E8B26E
:106F00008DF801006A4602214FF4EF70FFF7FAFA9C
:106F100038BD38B50446052094FBF0F085B2281240
:106F20008DF80000E8B28DF801006A4602214FF4A6
:106F3000ED70FFF7E7FA38BDF8B505460E464FF499
:106F40007A7095FBF0F000FB06F4200E8DF800003F
:106F5000200C8DF80100200A8DF80200E0B28DF8B7
:106F600003006A4604214FF4AE70FFF7CBFAF8BD78
:106F700038B50446052094FBF0F084B220128DF859
:106F80000000E0B28DF801006A4602214FF4AD70B6
:106F9000FFF7B8FA38BD38B50446052094FBF0F089
:106FA00084B220128DF80000E0B28DF801006A462C
:106FB00002214FF4AC70FFF7A5FA38BD38B504468E
:106FC00014B94FF0FF3038BD6A4604214FF45870B1
:106FD000FFF7D5FA10B14FF0FF30F4E79DF800004D
:106FE00000069DF8011040EA01409DF8021040EAB9
:106FF00001209DF80310084320600020E3E738B526
:107000000446200E8DF80000200C8DF80100200AA7
:107010008DF80200E0B28DF803006A4604214FF4B7
:107020005870FFF76FFA38BD38B5044614B94FF001
:10703000FF3038BD6A4604214FF47170FFF79FFAA4
:1070400010B14FF0FF30F4E79DF8000000069DF806
:10705000011040EA01409DF8021040EA01209DF82D
:107060000310084300EB8000800020600020E0E770
:1070700038B504461420B4FBF0F4200E8DF800005F
:10708000200C8DF80100200A8DF80200E0B28DF886
:1070900003006A4604214FF47170FFF733FA38BDDC
:1070A00038B5044664B120208DF8000028208DF802
:1070B000010030208DF8020038208DF8030004E034
:1070C000A3220421684601F04FFD6A46042140F6E0
:1070D0009E20FFF717FAFDF77DFE38BDAC0A0020B1
:1070E00000004843000040460000C0450000404505
:1070F0000000C04438B5044664B1C0208DF80000DB
:10710000C2208DF80100C4208DF80200C6208DF841
:10711000030004E08B220421684601F025FD6A4645
:10712000042140F69820FFF7EDF9FDF753FE38BD36
:107130003EB504466CB1FDA1D1E900208968CDE9D6
:10714000002002916A4609214FF49760FFF7DAF9AF
:107150003EBDF9A2D2E900109268CDE9010200918A
:107160006A4609214FF49760FFF7CCF9F0E73EB586
:10717000044602208DF80000CA208DF80100E320AB
:107180008DF8020009208DF803006A46042168206A
:10719000FFF7B8F9A3208DF8000004F0400048B1D3
:1071A000C0208DF80100C8208DF80200C2208DF8A3
:1071B000030006E0A3208DF801008DF802008DF891
:1071C000030004F4C07048B1C4208DF80400CC2042
:1071D0008DF80500C6208DF8060006E0A3208DF886
:1071E00004008DF805008DF80600A3208DF8070037
:1071F0008DF808008DF809006A460A2140F6A7209C
:10720000FFF780F904F0030018B120208DF800008A
:1072100002E0D8208DF800006A46012140F6B62031
:10722000FFF770F904F0200018B10120FFF780FF8C
:1072300002E00020FFF77CFF04F4C07008B304F400
:10724000807060B1B2208DF800008B208DF80100B5
:10725000B6208DF802009B208DF803000BE0B020D3
:107260008DF8000080208DF80100B4208DF8020018
:1072700090208DF803006A46042140F6A220FFF713
:1072800041F904F0010020B3F8208DF800006A46AF
:1072900001214FF40B60FFF735F9FA210720FFF7C2
:1072A00029FD0720FFF7ECFD0120FFF70CFE64200D
:1072B000FFF71CFE4FF4FA70FFF72BFEC821A14820
:1072C000FFF73AFE2820FFF753FE0A20FFF763FE80
:1072D00008E0D8208DF800006A4601214FF40B60C9
:1072E000FFF710F904F0020018B1D9208DF8000062
:1072F00002E0D8208DF800006A46012140F23D707E
:10730000FFF700F904F0040018B10120FFF7F2FEC6
:1073100002E00020FFF7EEFE04F0100018B101209B
:10732000FFF7BEFE02E00020FFF7BAFE44F00800BF
:1073300085494881FDF74EFD00208349887304F09C
:10734000400018B10846807B801D887304F4C0702B
:1073500020B17D48807B801D7B49887304F0140038
:1073600020B17948807B10307749887304F003009E
:1073700020B17548807B001D7349887300203EBD95
:107380000146714840890880002070472DE9F0418E
:107390000446E07800F0C006E07800F03F05607831
:1073A00000F0010098B1EF102846E91705EB517184
:1073B000C910A5EBC101491C01F0FF086248006833
:1073C00020B16148414602683846904700BF607866
:1073D00000F0080030B15C48406818B1B0115A4A5A
:1073E000516888470020BDE8F08110B586B004469A
:1073F00056A207CA03AB07C357A207CA8DE8070006
:10740000012C09D0022C0ED103AA0B2140F68220B8
:10741000FFF778F806B010BD6A460B2140F68220CF
:10742000FFF770F8F6E74FF0FF30F3E72DE9F04F84
:107430008DB00746884615469946DDE9166B00244F
:10744000002030804049887B5A4605A9FEF7BDFBE5
:1074500018B1601E0DB0BDE8F08F3B48807A00F097
:107460001400002861D09DF8140000069DF8151046
:1074700040EA01409DF8161040EA01209DF81710DF
:10748000084328609DF8180000069DF8191040EA8E
:1074900001409DF81A1040EA01209DF81B10084396
:1074A00068609DF81C0000069DF81D1040EA014030
:1074B0009DF81E1040EA01209DF81F100843A860A7
:1074C0009DF8200000069DF8211040EA01409DF83B
:1074D000221040EA01209DF823100843E86004F1DF
:1074E0001000C4B22868001401906868001402906B
:1074F000A86800140390E8680014049001984043C1
:10750000029901FB0100039901FB0100049901FBB1
:10751000010ABAF1706F02DBBAF1885F22DDFDF774
:1075200059FC00203080401E94E721E0B8AAB38DBA
:10753000B4980D355D000000B8AAAAAAB088C3C5EA
:10754000C700000009E3CA02AC0A0020D8B1B9F3B1
:107550008BA391B609B4D900DAB1B9F38BA391B674
:10756000DAB4DA00B6F9000040F48070308000BF71
:107570003448807A00F0400020B305A9601C085C04
:10758000095D40EA012000B2A8F8000005A9E01C4E
:10759000095C05AAA01C105C41EA002000B2A8F812
:1075A000020005A9601D095C201D105C41EA002055
:1075B00000B2A8F80400A01DC4B2B6F9000040F063
:1075C000080030801F48408900F4C07008B305A946
:1075D000601C085C095D40EA012000B2388005A902
:1075E000E01C095C05AAA01C105C41EA002000B266
:1075F000788005A9601D095C201D105C41EA00200F
:1076000000B2B880A01DC4B2B6F9000040F070000E
:1076100030800C48807A00F0030018B105A90819E1
:10762000FFF7B4FE4846FDF734FF002012E701469D
:107630000448016000207047014602484160002074
:1076400070470000AC0A0020014691F90020002A92
:1076500001DD00201EE091F90020002A01DA04205B
:1076600018E091F90120002A01DD012012E091F9D2
:107670000120002A01DA05200CE091F90220002AFD
:1076800001DD022006E091F90220002A01DA06203D
:1076900000E00720704770B505462846FFF7D4FF85
:1076A0000446E81CFFF7D0FF44EAC00084B2A81DDE
:1076B000FFF7CAFF44EA801084B2204670BD70B55F
:1076C00088B002A905A8FEF792FE0446072C3FD118
:1076D00001A8FEF701F9059803F064FC064601993C
:1076E00003F0C0FC054603F021FC0590069803F06A
:1076F00059FC0646019903F0B5FC054603F016FC5B
:107700000690079803F04EFC0646019903F0AAFC88
:10771000054603F00BFC079005A8FFF778F96846CB
:10772000FEF7F7F8BDF80010029848430290BDF844
:107730000010039848430390BDF800100498484394
:10774000049002A8FFF7F6F9FEA001F067F900BF68
:1077500008B070BD2DE9F04304460D46DDE907672A
:107760000021012041E0DFF800C43CF81080A0F1C6
:10777000010CDFF8F49329F81C8009F1160C3CF891
:107780001090A0F1010CDFF8E08308F1160828F84A
:107790001C9008F1160C3CF81090A0F1010C08F1B7
:1077A000160828F81C9008F1160C3CF81090A0F16F
:1077B000010C08F1160828F81C9008F1160C3CF88A
:1077C0001090A0F1010C08F1160828F81C9008F19F
:1077D000160C3CF81090A0F1010C08F1160828F8DE
:1077E0001C9000F1010C0CF0FF000A28BBDBDFF855
:1077F00078C3ACF81240ACF82850ACF83E20ACF896
:107800005430ACF86A60ACF880700021002008E0C9
:10781000DFF854C33CF910C0614400F1010C0CF0D6
:10782000FF000A28F4DB4FF00A0C91FBFCFC0FFA76
:107830008CFCDFF83483A8F814C0002100200AE093
:10784000DFF824C30CF1160C3CF910C0614400F1C0
:10785000010C0CF0FF000A28F2DB4FF00A0C91FB40
:10786000FCFC0FFA8CF8DFF800C3ACF82A8000218A
:1078700000200AE0DFF8F0C20CF12C0C3CF910C03B
:10788000614400F1010C0CF0FF000A28F2DB4FF01C
:107890000A0C91FBFCFC0FFA8CF8DFF8CCC2ACF8B8
:1078A0004080002100200AE0DFF8BCC20CF1420C4D
:1078B0003CF910C0614400F1010C0CF0FF000A28F3
:1078C000F2DB4FF00A0C91FBFCFC0FFA8CF8DFF8AE
:1078D00098C2ACF85680002100200AE0DFF888C288
:1078E0000CF1580C3CF910C0614400F1010C0CF093
:1078F000FF000A28F2DB4FF00A0C91FBFCFC0FFAA8
:107900008CF8DFF864C2ACF86C80002100200AE03B
:10791000DFF854C20CF16E0C3CF910C0614400F168
:10792000010C0CF0FF000A28F2DB4FF00A0C91FB6F
:10793000FCFC0FFA8CF8DFF830C2ACF88280BDE8AE
:10794000F08338B50446032302226B21D020009433
:10795000FAF7B0FB38BD38B50446022304221B21D8
:10796000D0200094FAF7A6FB38BD38B504460223B0
:1079700004221C21D0200094FAF79CFB38BD10B5DE
:107980000446234606226B21D020FAF7C8FB10BD1F
:1079900010B5764B01227521D020FAF719FB7348F8
:1079A000007810BD10B5FFF7F3FF682801D1012062
:1079B00010BD0020FCE710B50446234605226A21CD
:1079C000D020FAF7ACFB10BD10B5044623460122C7
:1079D0003721D020FAF7A3FB10BD10B50220FFF726
:1079E000B0FF0320FFF7B7FF0020FFF7BEFF002026
:1079F000FFF7C5FF0020FFF7DEFF0020FFF7E4FFE1
:107A000010BD38B5002000906B460122752168201A
:107A1000FAF780FA56A001F001F89DF800006828F6
:107A20000ED000BF5B48006800F4E0605A4908438C
:107A3000001D58490860BFF3408F00BF00BFFEE73C
:107A4000FDF757FC00283CD17820FDF7BAF810B9B3
:107A500047A000F0E3FF7820FDF79AFA10B94FA095
:107A600000F0DCFFC820FDF774FB10B955A000F052
:107A7000D5FFFEF731FF10B95CA000F0CFFF6848DA
:107A8000FFF709FE0446FEF731FF10B965A000F0CC
:107A9000C5FF40F27310FFF76AFB10B96BA000F04E
:107AA000BDFFC820FFF7DCF810B972A000F0B6FFE8
:107AB000FFF705FE0120FEF755FC10B976A000F097
:107AC000ADFF38BD2DE9F04F8FB00CA87B490DAB51
:107AD00008AACDE900107A497A48FFF7A7FC774851
:107AE000008800F4807000282AD0089803F05AFA21
:107AF00004464FF09D4103F023F97349086009984B
:107B000003F050FA04464FF09D4103F019F96F4914
:107B100008600A9803F046FA04464FF09D4103F0CE
:107B20000FF96B4908600B9803F03CFA04464FF0DC
:107B30009D4103F005F96749086063480168CBE09F
:107B4000A5E1000073657474696E672062696173F2
:107B50002073756363657366756C6C79202E2E2EA9
:107B60002E2E2E0D0A000000CA0A0020BC0A00209A
:107B70006D70755F7365745F73656E736F7220638C
:107B80006F6D706C657465202E2E2E2E2E2E0D0AB4
:107B9000000000000CED00E00000FA056D70755F5C
:107BA000636F6E6669677572655F6669666F20638D
:107BB0006F6D706C657465202E2E2E2E2E2E0D0A84
:107BC000000000006D70755F7365745F73616D70A8
:107BD0006C655F7261746520636F6D706C65746550
:107BE000202E2E2E2E2E2E0D0A000000646D705FAA
:107BF0006C6F61645F6D6F74696F6E5F64726976DC
:107C000065725F6669726D7761726520636F6D7012
:107C10006C657465202E2E2E2E2E2E0D0A0000006F
:107C20002C020020646D705F7365745F6F7269650C
:107C30006E746174696F6E20636F6D706C657465CE
:107C4000202E2E2E2E2E2E0D0A000000646D705F49
:107C5000656E61626C655F666561747572652063EF
:107C60006F6D706C657465202E2E2E2E2E2E0D0AD3
:107C700000000000646D705F7365745F6669666F15
:107C80005F7261746520636F6D706C657465202E22
:107C90002E2E2E2E2E0D0A006D70755F7365745F8B
:107CA000646D705F737461746520636F6D706C6573
:107CB0007465202E2E2E2E2E2E0D0A001802002066
:107CC000120200200C0200201C02002020020020D2
:107CD00024020020280200204FF0804003F0C2F967
:107CE000069088480168069803F0BCF982468648E9
:107CF00001684FF0404003F0B5F9069083480168F1
:107D0000069803F0AFF98346514602F0ABFF0790A7
:107D100002F07CFF064601F02BF980464FF06632F8
:107D20007B4B02F063FC044602F048F97949086095
:107D3000744801684FF0804003F094F90390714853
:107D40000168039803F08EF982466F4801684FF08E
:107D5000404003F087F903906B480168039803F0F3
:107D600081F98346514603F085FA81464FF07E51F2
:107D700002F078FF044602F049FFCDE904016648AD
:107D800001684FF0804003F06DF983465E4801685A
:107D9000584603F067F981465A4801684FF0804021
:107DA00003F060F9834659480168584603F05AF9D0
:107DB0008246494602F056FF044602F027FF074676
:107DC000DDE9042301F024FB4FF06632504BCDE98E
:107DD000060102F00BFC054602F0F0F84F4908607E
:107DE0004A480168006803F03DF90390454801687E
:107DF000006803F037F9029043480168006803F017
:107E000031F9834644480168006803F02BF959466C
:107E1000019002F027FF8246029903F02BFA814677
:107E2000039903F027FA044602F0F0FECDE90401BD
:107E3000364801683848006803F014F98246314832
:107E400001683148006803F00DF98346514602F09D
:107E500009FF81464FF0804103F004F9044602F027
:107E6000D5FE0746DDE9042301F0D2FA4FF0663271
:107E7000274BCDE9060102F0B9FB054602F09EF85A
:107E8000274908602748B0F90400274908600FB067
:107E9000BDE8F08F2DE9F05F4221D020FAF775F8A8
:107EA00005464121D020FAF770F805EB0024204662
:107EB00003F078F882464FF08E41504603F09EF969
:107EC00005D24FF08F41504603F0D4F9824617494E
:107ED000504602F035FF834602F098FE8046144A71
:107EE000144B02F09DF806460022134B02F07EFB75
:107EF000044602F063F88246504603F017F8BDE8E6
:107F0000F09F000024020020200200202802002010
:107F100066A64C40900000201C0200209400002027
:107F2000980000200C020020D80000200000AA4386
:107F3000A4703D0AD74342400000244038B5F8A25F
:107F400000210846F9F7EFF90021F648006803F030
:107F500055F811D2F449F348006802F083FE054653
:107F600003F000F804460C20032322460021009071
:107F70000F20F9F78EF90CE0EA48006802F0F2FFF2
:107F800004460C2003232246002100900F20F9F71D
:107F900080F9E6A200212820F9F7C5F90021E4487C
:107FA000006803F02BF811D2DF49E148006802F0C5
:107FB00059FE054602F0D6FF04460C200323224654
:107FC000002100903720F9F764F90CE0D8480068E8
:107FD00002F0C8FF04460C20032322460021009033
:107FE0003720F9F756F9D3A200215020F9F79BF971
:107FF0000021D148006803F001F811D2CA49CE48E7
:10800000006802F02FFE054602F0ACFF04460C208B
:1080100003232246002100905F20F9F73AF90CE093
:10802000C548006802F09EFF04460C200323224648
:10803000002100905F20F9F72CF9C0480078002853
:1080400079D1BF48006800280FDABEA20A210020BB
:10805000F9F769F90C2005230090B94800684242FD
:108060000A210F20F9F715F90DE0B7A20A21002027
:10807000F9F759F90C2005230090B1480A2102684C
:108080000F20F9F706F9B148006800280FDAADA211
:108090000A215020F9F747F90C2004230090AB483F
:1080A000006842420A215F20F9F7F3F80DE0A6A22A
:1080B0000A215020F9F737F90C2004230090A34837
:1080C0000A2102685F20F9F7E4F8A1480068002857
:1080D0000FDA9CA214210020F9F725F90C200523C2
:1080E00000909B480068424214210F20F9F7D1F814
:1080F0000DE095A214210020F9F715F90C200523B5
:1081000000909348142102680F20F9F7C2F89148B3
:108110000068002810DA8BA214215020F9F703F927
:108120000C20042300908B480068424214215F20F9
:10813000F9F7AFF80EE096E083A214215020F9F78A
:10814000F2F80C20042300908248142102685F207A
:10815000F9F79FF88048006800280FDA79A21E21FD
:108160000020F9F7E0F80C20052300907A48006819
:1081700042421E210F20F9F78CF80DE072A21E2159
:108180000020F9F7D0F80C200523009072481E213A
:1081900002680F20F9F77DF87048006800280FDAB0
:1081A00068A21E215020F9F7BEF80C20042300908D
:1081B0006A48006842421E215F20F9F76AF80DE024
:1081C00061A21E215020F9F7AEF80C200423009084
:1081D00062481E2102685F20F9F75BF8604800687A
:1081E00000280FDA57A228210020F9F79CF80C206C
:1081F000052300905A480068424228210F20F9F7D1
:1082000048F80DE050A228210020F9F78CF80C2046
:10821000052300905248282102680F20F9F739F809
:108220005048006800280FDA46A228215020F9F7AC
:108230007AF80C20042300904A4800684242282122
:108240005F20F9F726F854E13FA228215020F9F7E2
:108250006AF80C20042300904248282102685F201D
:10826000F9F717F845E1354800780128EBD1344893
:10827000006800280FDA33A20A210020F9F753F82A
:108280000C20052300902E48006842420A210F204E
:10829000F8F7FFFF0DE02CA20A210020F9F743F8C0
:1082A0000C200523009026480A2102680F20F8F7C9
:1082B000F0FF2D48006800280FDA22A20A21502082
:1082C000F9F731F80C200423009027480068424257
:1082D0000A215F20F8F7DDFF0DE01BA20A215020E4
:1082E000F9F721F80C20042300901F480A210268A6
:1082F0005F20F8F7CEFF16480068002836DA11A292
:1083000014210020F9F70FF80C20052300901048E5
:108310000068424214210F20F8F7BBFF35E000004F
:10832000583A0000900000200000B443593A000081
:10833000940000205A3A00009800002066000020B7
:108340004C0000202D0000002B0000000800002041
:10835000500000200C0000205400002010000020DD
:10836000580000201400002018000020AFF228025E
:1083700014210020F8F7D7FF0C2005230090F848BF
:10838000142102680F20F8F784FFF64800680028DF
:1083900010DAAFF2500214215020F8F7C4FF0C207D
:1083A00004230090EF480068424214215F20F8F750
:1083B00070FF0EE0AFF2700214215020F8F7B3FF07
:1083C0000C2004230090E748142102685F20F8F78E
:1083D00060FFE5480068002810DAAFF298021E211D
:1083E0000020F8F7A0FF0C2005230090DE4800686D
:1083F00042421E210F20F8F74CFF0EE0AFF2B80208
:108400001E210020F8F78FFF0C2005230090D6488E
:108410001E2102680F20F8F73CFFD44800680028AE
:1084200010DAAFF2E0021E215020F8F77CFF0C209A
:1084300004230090CD48006842421E215F20F8F7D7
:1084400028FF0EE0AFF200121E215020F8F76BFF5C
:108450000C2004230090C5481E2102685F20F8F715
:1084600018FFC3480068002810DAAFF2281228214C
:108470000020F8F758FF0C2005230090BC48006846
:10848000424228210F20F8F704FF0EE0AFF2481215
:1084900028210020F8F747FF0C2005230090B4485E
:1084A000282102680F20F8F7F4FEB248006800287F
:1084B00010DAAFF2701228215020F8F734FF0C20A8
:1084C00004230090AB480068424228215F20F8F75F
:1084D000E0FE0EE0AFF2901228215020F8F723FFC3
:1084E0000C2004230090A348282102685F20F8F79D
:1084F000D0FEA148007828B9A0A232210020F8F7C8
:1085000012FF08E09C480078012804D19EA2322185
:108510000020F8F708FF9FA232215820F8F703FF48
:108520009DA232216E20F8F7FEFE9C48006864216F
:1085300090FBF1F40C2002232246322100904B20C4
:10854000F8F7A7FE95480068642190FBF1F201FB63
:1085500012040C2002232246322100906220F8F7F8
:1085600098FE8E480068642190FBF1F201FB120036
:108570000A2807DA0C2002230022322100905C2016
:10858000F8F787FEF8F7A5FD38BD2DE9F04F87B065
:108590008249086800EBD0714910A1F256414900A8
:1085A000032291FBF2FABAF1640F01DD4FF0640A85
:1085B0007B48006802F02AFB05464FF06632794B93
:1085C00002F014F8074601F07BFF0446002C00DAA5
:1085D00064427548006802F019FB07464FF06632A6
:1085E000704B02F003F8054601F06AFF8146B9F1CD
:1085F000000F01DAC9F100095F480078012802D1B3
:1086000000244FF000096948007808B9012000E013
:108610000020664908706648007801282BD165481B
:10862000006802F083FC05466348006802F07EFCA7
:1086300006466248006802F079FC07466048006818
:1086400002F074FC80465F48006802F06FFC8346CD
:108650000020CDE903505B46CDE9008702960590E6
:10866000594802685948016859A000F0D7F900201C
:108670004F49087023E04D48007848B9002009F0C0
:10868000FF02E1B25346009059A000F0C7F916E08E
:108690005B48006802F04AFC05465A48006802F050
:1086A00045FC06465848006802F040FC07462B4649
:1086B0003246394655A0CDF800A000F0AFF907B01A
:1086C000BDE8F08F10B52C48007800BB5348006817
:1086D00002F068FC0446012100F0DEF85048006812
:1086E00002F060FC0446022100F0D6F84D48006814
:1086F00002F058FC0446032100F0CEF84A48006816
:1087000002F050FC0446042100F0C6F81FE0474880
:10871000006802F047FC0446012100F0BDF8114852
:10872000006802F03FFC0446022100F0B5F80F4853
:10873000006802F037FC0446032100F0ADF80D4854
:10874000006802F02FFC0446042100F0A5F8042084
:1087500000F0F1F8364908700020364908707EE0D4
:10876000500000201C0000205400002020000020A9
:1087700058000020240000206600002056454C4F81
:108780004349545900000000504F534954494F4E3B
:10879000000000002E000000560000005C000020D9
:1087A0009C0000206666E63FA000002044020020F6
:1087B0007B000020B8000020B4000020B0000020A2
:1087C000AC000020A8000020C0000020BC00002059
:1087D0007B4325643A25643A25643A25643A256446
:1087E0003A25643A25643A25643A25647D240000DC
:1087F0007B4125643A25643A25643A25647D24004A
:108800009800002094000020900000207B42256406
:108810003A25643A25643A25647D24000800002046
:108820000C00002010000020140000201800002080
:108830003D0200203C02002000BF0C48008800F0F0
:1088400040000028F9D00A480A490978405C0749E5
:10885000091D088007480078401C06490870054833
:108860000078054909788842E6DB10BD00380140F0
:108870004E0B00203C0200203D02002030B5034694
:108880001C788C545D78541C0D559D78941C0D55A6
:10889000DD78D41C0D5530BD13B50C460A2C00DC18
:1088A00004B91CBD0B2C43D2DFE804F042060C12C5
:1088B000181E242A30363C00012244496846FFF73E
:1088C000DDFF35E0052241496846FFF7D7FF2FE07D
:1088D00009223E496846FFF7D1FF29E00D223B49B6
:1088E0006846FFF7CBFF23E0112238496846FFF7BF
:1088F000C5FF1DE0152235496846FFF7BFFF17E0A9
:10890000192232496846FFF7B9FF11E01D222F49AD
:108910006846FFF7B3FF0BE021222C496846FFF7BA
:10892000ADFF05E0252229496846FFF7A7FF00BFF4
:1089300000BF00BFB5E701460A2900DC09B90020E5
:1089400070472420214A10700B293CD2DFE801F047
:108950003B060B10151A1F24292F350005201B4A32
:1089600050710620ECE70920184A50720A20E7E708
:108970000D20164A50730E20E2E71120134A50745E
:108980001220DDE71520114A50751620D8E719206E
:108990000E4A50761A20D3E71D200C4A50771E202D
:1089A000CEE72120094A82F821002220C8E72520AD
:1089B000064A82F825002620C2E72920034A82F8C9
:1089C00029002A20BCE70020BAE700004E0B002057
:1089D000704710B54C1084EA530404D54042C1F1ED
:1089E000000138BF491E1B4204D55242C3F10003A7
:1089F00038BF5B1E00F0E6F814F0804F04D0404210
:108A0000C1F1000138BF491E14F0004F04D052429A
:108A1000C3F1000338BF5B1E10BD00000FB4044952
:108A200010B503AA029800F0A9F910BC5DF814FB78
:108A3000E00000202DE9F0410E46044600202062AF
:108A40002046E168884730B3252805D0D4E90121C4
:108A50009047206A401CF2E7E168204600278847DB
:108A6000050018D0A5F14100192802D820354FF48F
:108A700000673246294620462760F7F7B3FB40B12E
:108A8000012804D0F61D26F007060836D8E7361D63
:108A9000D6E72846DAE7206ABDE8F0812DE9F04103
:108AA0000646002410687529314615A510D0AFF38D
:108AB0000080002802DA404212A507E031688A07E8
:108AC00001D511A502E0490704D510A5012401E054
:108AD000AFF3008000210A2306F1240707E0B0FB72
:108AE000F3F203FB1200303078541046491C002882
:108AF000F5D123462A463046BDE8F04100F0E4B8FF
:108B0000000000002D0000002B00000020000000ED
:108B100040EA010310B59B070FD1042A0DD310C8FA
:108B200008C9121F9C42F8D020BA19BA884201D94C
:108B3000012010BD4FF0FF3010BD1AB1D30703D094
:108B4000521C07E0002010BD10F8013B11F8014B4A
:108B50001B1B07D110F8013B11F8014B1B1B01D166
:108B6000921EF1D1184610BD02F0FF0343EA032222
:108B700042EA024200F002B84FF000020429C0F0BD
:108B8000128010F0030C00F00D81CCF1040CBCF14C
:108B9000020F18BF00F8012BA8BF20F8022BA1EB91
:108BA0000C0100F0FFB85FEAC17C24BF00F8012B84
:108BB00000F8012B48BF00F8012B70477047704741
:108BC0007047704753EA020C00F069802DE9F04BC2
:108BD0004FF00006002B1FBFB3FA83F503FA05F42C
:108BE00024FA05F65E4012BF1643B2FA82F502FA85
:108BF00005F4C5F120051EBF22FA05FC44EA0C0469
:108C0000203556EA044C4FEA144418BF641C4FF058
:108C100000084FF00009904271EB030C39D3002992
:108C200019BFB1FA81F701FA07F6B0FA80F700FA36
:108C300007F6C7F120071EBF20FA07FC46EA0C061C
:108C40002037B6FBF4FCA7EB0507103F07F01F0B1E
:108C5000CBF120060CFA0BFB2CFA06F644BFB34608
:108C60000026202FA4BF5E464FF0000B5BEA060CE7
:108C700008BF4FF0010B19EB0B09ABFB027C48EB73
:108C80000608C01B06FB02CC0BFB03CC71EB0C01EE
:108C9000C1E70B46024641464846BDE8F08B13B596
:108CA0004FF000004FF00001AFF30080BDE81C4022
:108CB000704710B500F09CF8006810BD10B5044670
:108CC00000F096F8046010BD2DE9F0470D46994676
:108CD0009246044600F124080168880604D5E0693C
:108CE00021F01001216000E00120A84201DD471BB6
:108CF00000E00027A1697A1902EB0900081AA061B7
:108D00002078C00602D42046AFF30080002608E099
:108D1000D4E901211AF806009047206A401C761C0D
:108D200020624E45F4DB2078C0060AD52046AFF31A
:108D3000008006E0D4E9012130209047206A401CE1
:108D40002062381EA7F10107F4DC07E0D4E9012115
:108D500018F805009047206A401C2062281EA5F1E3
:108D60000105F3DC2046AFF300802078000602D531
:108D70000220BDE8F0870120FBE70000074B70B53B
:108D80000D467B4400F03DF80446284600F04CF8C0
:108D900010B14FF0FF3070BD204670BD5579FFFF18
:108DA0004FF0000200B5134694469646203922BF84
:108DB000A0E80C50A0E80C50B1F12001BFF4F7AFCF
:108DC000090728BFA0E80C5048BF0CC05DF804EBB1
:108DD000890028BF40F8042B08BF704748BF20F81F
:108DE000022B11F0804F18BF00F8012B70470000D4
:108DF00000487047780B002001694A1C026108781E
:108E0000704700B58FB0CDE90131002105910549CA
:108E10007944CDE9031011466846FFF70BFE0FB009
:108E200000BD0000E5FFFFFF007B00F08000704701
:108E300000487047780B00207546FFF7F9FFAE46F3
:108E400005006946534620F00700854618B020B556
:108E5000F7F7F2F9BDE820404FF000064FF00007A9
:108E60004FF000084FF0000B21F00701AC46ACE8D2
:108E7000C009ACE8C009ACE8C009ACE8C0098D463F
:108E800070470446AFF300802046F7F7BDF949006C
:108E900050EAC12018BF04204A0D18BF40F001005D
:108EA00040F2FF72B2EB515F08BF40F002000128B0
:108EB00008BF052070472DE9F0414F1E00EBC701A8
:108EC0000446D1E9000115461E4637F006020DD0D2
:108ED0002A46334601F08AFB7F1E04EBC703D3E921
:108EE000002301F09DF837F00602F1D1022F25D0C2
:108EF000042F13D0062F18BFBDE8F0812A46334651
:108F000001F074FBD4E90A2301F08AF82A463346BB
:108F100001F06CFBD4E9082301F082F82A463346BD
:108F200001F064FBD4E9062301F07AF82A463346BF
:108F300001F05CFBD4E9042301F072F82A463346C1
:108F400001F054FBD4E9022301F06AF82A463346C3
:108F500001F04CFBD4E90023BDE8F04101F060B81A
:108F6000024A0020110702F02CBA000001FDFFFFA9
:108F70002DE9F04D904F21F0004A86B005460C4691
:108F8000BA4530DBAAEB070028430CD08B4882455A
:108F900001DC1CD1DDB106B02846BDE8F04D4FF034
:108FA000010202F00EBA864A864B284601F01EFBEB
:108FB00007460E46844A854B2846214601F016FB9B
:108FC00006B03A463346BDE8F04D01F029B801201D
:108FD000FFF774FE06B00022BDE8F04D13461046C0
:108FE000114601F0D9B87A48824542DABAF1795F80
:108FF0000BDA2846FFF74BFF042808BFFFF7B0FF46
:10900000284606B02146BDE8F08D2A460B4610469C
:1090100001F0ECFA834602466E480E460B460621E6
:109020007844FFF748FF5A46334601F0DFFA80469E
:1090300069488A465A46334604217844FFF73BFF85
:109040005A46334601F0D2FA00223B4600F0E8FFD0
:1090500002460B464046514601F09EF82A462346FA
:1090600001F0C4FA06B02A462346BDE8F04D00F0F0
:10907000D7BF284624F0004100223D463B4601F080
:10908000E9FB4FF0FF3202F09CF9064602465348D6
:109090000F460B4606217844FFF70DFF32463B464C
:1090A00001F0A4FACDE900014D4832463B460421C7
:1090B0007844FFF700FF32463B4601F097FA002262
:1090C0002B4600F0ADFF834602913046394600F052
:1090D0004FFF804643480D46504517DCDDE900014F
:1090E0005A46029B01F058F842462B4601F07EFAA0
:1090F00042462B4600F094FF012202F062F9304A0A
:10910000304B01F099FC304A304B4CE04FF0000AF4
:1091100052460B46404600F083FFCDE9031052460D
:109120002B461046194601F061FA32463B4601F0E3
:1091300091FBDDE9033201F02FF806460F46DDE929
:1091400000015A46029B01F027F883460091012254
:109150003046394602F035F9194A1A4B01F07AFBCC
:1091600006460F4601224046294602F02AF95A4691
:10917000009B01F03BFA32463B4601F05DFC07469E
:109180000E4601225046294602F01BF90E4DDFF82B
:1091900058802A46434601F05DFB3A46334601F0CB
:1091A00059FB2A46434601F055FB002CD8BF81F0FD
:1091B000004106B0BDE8F08D0000F03F0000F07FF8
:1091C000075C143326A6913C182D4454FB21F93F2B
:1091D0000000E03FDC3A0000F23A0000663A00008E
:1091E0007C3A00003333EF3FFB21E93F2DE9F84F94
:1091F00004460D4621F0004000917449814213DC81
:109200007349884201DC08D13CB120462946BDE8BB
:10921000F84F4FF0010202F0D4B86E48002DCCBFD9
:109220006D496E49BDE8F88F6D49814211DD6D4988
:109230008142D8BF4FF0FF366DDD20462946FFF74B
:1092400026FE042808BFFFF78BFE20462946BDE80E
:10925000F88F6549654F25F00045814233DD64494B
:10926000814219DD002632464FF0804320462946D0
:1092700000F0D6FE80468A4601222046294602F0AA
:10928000A0F800223B4601F0D7FB4246534600F0CF
:1092900083FF04460D463EE001260022BA463B46C7
:1092A0002046294600F0BCFE80460F460022534669
:1092B0002046294601F0C0FB42463B4600F06CFFC9
:1092C00004460D4627E04B4981421BDDDFF828812B
:1092D0000226002243462046294601F087F9002253
:1092E0003B4600F09DFE07468A4600224346204644
:1092F000294601F0A1FB3A46534600F04DFF0446D3
:109300000D4608E0032622462B4600203B4900F08C
:1093100043FF04460D4622462B461046194601F0EF
:1093200065F98B46824602460B4601F05FF9074617
:109330000246334888460B4606217844FFF7BBFDBA
:1093400052465B4601F052F982462E488B463A4619
:10935000434605217844FFF7AEFD3A46434601F007
:1093600045F902460B46002E504659460CDA00F0ED
:1093700057FE22462B4601F039F901B022462B4612
:10938000BDE8F04F01F066BA00F04AFE22462B46D7
:1093900001F02CF91C4A7A4402EBC603D3E90023FE
:1093A00001F04AFB22462B4601F046FB174A7A445D
:1093B00002EBC603D3E9002301F04CFA009A002A1D
:1093C000B8BF81F00041BDE8F88F000000001044F4
:1093D0000000F07F182D4454FB21F93FFB21F9BF19
:1093E0000000DC3F0000203E0000F33F0000F03FA3
:1093F0000000E63F008003400000F83F0000F0BF9F
:1094000002390000C03800005E3800002638000035
:109410002DE9F04D9446CCF1000423F000464CEACF
:109420000404524F46EAD4749A46884621F000421A
:10943000BC4206D8454240EA050442EAD474BC4224
:1094400004D9BDE8F04D624600F0EABDAAF14055EE
:10945000A5F17F6555EA0C040BD0022404EAAA7436
:10946000434DDFF810E144EAD87452EA000B04D00F
:109470000CE0BDE8F04DFFF7B9BE002C14BF012C85
:10948000BDE8F08D022C30D0032C32D056EA0C0B04
:109490000AD0BE4220D1BA4209D126F0804622F03D
:1094A00080423346114617E000291ADB25E0DFF839
:1094B000C8B0FB44002C04BFDBE90001BDE8F08D1F
:1094C000012C02BFDBE9000181F00041BDE8F08D15
:1094D000022C0AD0032C0CD0BA4212D1B8F1000FE2
:1094E0000BDA23482549BDE8F08D28462449BDE81C
:1094F000F08D28467146BDE8F08D1D482149BDE834
:10950000F08D921B12153C2AC4BF19481D490EDC70
:10951000BAF1000FBEBF12F13C0F0020014606DB7E
:10952000624600F039FE21F00041FFF75FFE002C9B
:1095300008BFBDE8F08D012C04BF81F00041BDE8FB
:10954000F08D114A114B022C07D001F075FA2A4612
:10955000BDE8F04D0A4B01F06FBA01F06DFA2A46F2
:10956000BDE8F04D064B01F075B900000000F07F3A
:10957000182D4454FB2109C0BA370000FB21F9BF64
:10958000FB210940FB21F93F075C143326A6A13CCF
:109590002DE9F04D16460F460546020094B01C46D4
:1095A00021F0004123F0004014BF4FF0010C4FF0B8
:1095B000000C0CEB470CFE4B0CEB03084FEA630C62
:1095C000E0452DD35FEA060818BF4FF0010808EB0D
:1095D00044089844F74B984522D3F74B50EA060CC1
:1095E00002D09F4205D14AB914B000201946BDE807
:1095F000F08D002A08BF4FF0000C01D04FF0010C95
:109600000CEB470313F5001F0AD8002E14BF4FF0D0
:10961000010C4FF0000C0CEB440313F5001F08D9AC
:1096200014B03246234628463946BDE8F04D00F0D6
:10963000F7BCDFF888B34FF0000A002FB8BF5845D9
:1096400023DADF4B9842A8BF4FF0020A1DDADA4B4B
:1096500083421ADCDB4B03EB2053142B08DDC3F1F0
:10966000340C26FA0CF303FA0CFCB4450DD108E0D7
:109670005EB9C3F1140C20FA0CF303FA0CFC844518
:1096800003D103F00103C3F1020A51EA020321D11D
:10969000002C1FDA002F18BFBAF1020F02D0BAF166
:1096A000010F0BD00220FFF709FB14B00022BDE828
:1096B000F04D13461046C04900F06EBD0220FFF782
:1096C000FDFA14B02A463B46BDE8F04D0020BA49E9
:1096D00000F062BD33006DD1584525D107F18040BF
:1096E00010F5801001BF002A0020B34914B008BF54
:1096F000BDE8F08DB048884207DC002CA1BF1846B9
:10970000214614B0BDE8F08D07E0002CBFBF18461D
:1097100084F0004114B0BDE8F08DAB497944D1E943
:10972000000114B0BDE8F08DDFF88CC2604526D191
:10973000002C1FDA19B1594513D1DAB90AE0002A11
:1097400040F0DA829D4A394614B0002062F31E01CF
:10975000BDE8F08D0020394614B060F31E01BDE86D
:10976000F08D07DA14B03B46BDE8F04D00206146AD
:1097700000F012BD14B010463946BDE8F08D5945D1
:1097800018DAB4F1804F0DD0A4F10053B3F1FF53B8
:1097900010D13B1E0EDB14B01046BDE8F04D19464B
:1097A00000F0E6BB3B4614B01046BDE8F04D19464C
:1097B00000F01CBF27F00043A2BBE1B1594538D1EE
:1097C000002F06DD002CA1BF0020594614B0BDE8D3
:1097D000F08D002F01DD002C1FDB002F16DA002C8E
:1097E00014DBBAF1010F4FF0000014BF7349774941
:1097F00014B0BDE8F08DBAF1020F18BF002F0CD0E5
:10980000BAF1010F09D1002F07DA0CE0002FB8BF21
:10981000002C0EDABAF1010F05D0002014B0014679
:10982000BDE8F08D05E014B000204FF00041BDE828
:10983000F08D4FF0010C0CEBE7720D9252EA0A0228
:109840000BD0634A90427DDD624B634A984216DD3D
:109850008A420EDB002C1CDB2CE00120FFF72EFAE5
:1098600014B00022BDE8F04D13461046114600F03A
:1098700093BC5148884202DC002C0ADC1AE0914279
:1098800002DA002C16DA04E04B4B99421EDD002C64
:1098900010DD0220FFF712FA40F2013200204FF0F3
:1098A000E04101F08EFD454A14B061F31E021146FD
:1098B000BDE8F08D0220FFF701FAFFF751FB3E4AA9
:1098C00014B061F31E021146BDE8F08D0022284657
:1098D000394601F0B1F8054688466FF0010201F003
:1098E00070FD4FF055323D4B00F0B4FF2A46434621
:1098F00000F07CFE00223A4B00F0ACFF07468B469E
:109900002A4643461046194600F070FE3A465B462A
:1099100000F06CFE09910C904FF0C042314B28468C
:10992000414600F063FE07468B462F4A2D4B0999AE
:109930000C9800F05BFECDE901102C4A2C4B284618
:10994000414600E019E000F051FEDDE9013201F08E
:1099500073F83A465B460591089000F061FB0025DC
:1099600088463A465B46284601F066F8059B089A09
:1099700000F070FF024600F076B90020B1F5801FBC
:1099800007DA35222846194601F01BFD05466FF01F
:10999000340000EB2150A0F2FF300190C1F313001E
:1099A00040F07F6141F0405102911249884223E02A
:1099B000FFFF1F00FFFF0F000000F03F0000F07FDF
:1099C0000000404301FCFFFF503500000000F0FFA5
:1099D0000000E0410000F043FFFFEF3F5555D53F49
:1099E0000000E03F4715F73FFE822B6544DF5DF83E
:1099F0000BAE543E8E980300D8BF4FF0000B0EDD27
:109A0000FE498142C8BF4FF0010B08DC01984FF0BE
:109A1000000B401C01900298A0F580100290F848BD
:109A20000299784400EBCB000B911090D0E9002311
:109A3000284601F001F8009010980791D0E9002322
:109A400028460B9900F0ECFA02460B460020ED493F
:109A500000F0A2FB05910B4602460890079900987A
:109A600000F0C4FD0690E848884600277844029933
:109A700000680E904FF0005040EA610000EB8B4010
:109A800000F5002110980291D0E900230E9800F013
:109A9000D3FF2A460B9B00F0DDFE3A46434600F01A
:109AA000A5FD05460B9138464146029B0E9A00F0F3
:109AB0009DFD079B009A00F0CDFE2A460B9B00F00F
:109AC000BBFF059B089A00F091FD0B911090069A40
:109AD00043461046194600F089FD05460246CB482C
:109AE0000B46009106217844FFF7E5F9009B2A46D2
:109AF000029108901046194600F078FD029B089AE2
:109B000000F074FD05460591434638461946069A0D
:109B100000F086FA0B9B109A00F068FD2A46059B20
:109B200000F07EFA3A4643460591089010461946E1
:109B300000F05CFD0022B64B00910C9000F070FA32
:109B4000059B089A00F06CFA0D463A46B04B384631
:109B500000F072FF009B0C9A00F06EFF059B089AC4
:109B600000F078FE11913A460C902B461046414683
:109B700000F03CFD079100904346069A11990C981D
:109B800000F034FD804603912B463A460B9910981D
:109B900000F02CFD4246039B00F042FA05918046FE
:109BA0000B4602460799009800F03AFA00200F464B
:109BB0000546079B009A00F03FFF4246059B00F0D8
:109BC00049FE804609914FF06042924B2846394643
:109BD00000F00CFD009102908F4A8E4B404609998F
:109BE00000F004FD804603918C4A8D4B284639468F
:109BF00000F0FCFC4246039B00F012FA894A7A44CA
:109C000002EBCB03D3E9002300F00AFA069003919C
:109C1000019800F084FC0746DDE902030591069AED
:109C2000009900F0FDF9804A7A4402EBCB0BDBE9A6
:109C3000002300F0F5F93A46059B00F0F1F9002504
:109C400088463A462846059B00F0F6FEDBE90023ED
:109C500000F0F2FE009B029A00F0EEFE039B069AD3
:109C600000F0F8FD0246002006900D98654FAAF11D
:109C70000103184301D16D4F069000200B46009060
:109C80003046214600F0B2FC82468B4623463046E1
:109C90001946009A00F0D0FE2A46434600F0A6FC82
:109CA00052465B4600F0BCF906468A462A464346C1
:109CB0002146009800F09AFC04460D463246534671
:109CC00000F0AEF95A4A8B46914226DBABEB020319
:109CD00053EA000210D122462B4600F0ADFE80462A
:109CE0000591544A544B3046514600F099F942468A
:109CF000059B00F079FD30D20220FEF7DFFF40F235
:109D0000013200204FF0E04101F05BFB0A4639468A
:109D100014B062F31E01BDE8F08D484B2BF00042F9
:109D20009A421AD3464A0BEB020353EA000208D1C7
:109D300022462B4600F080FE3246534600F054FD8A
:109D40000BD80220FEF7BAFFFFF70AF90A46394698
:109D500014B062F31E01BDE8F08D2BF000403949CC
:109D6000394A01EB20514FF00008824223DA481CA7
:109D70004FF4801121FA00F05844344AC0F30A51DC
:109D80007A44334BA1F2FF31CB4020EA0303C0F306
:109D9000130040F4801CC1F1140012682CFA00F882
:109DA000BBF1000FB8BFC8F100082046294600F0FB
:109DB00043FE04460D4622462B463046514600F0EF
:109DC0002FF94FF0000B5A46224B5846059100F0F0
:109DD0000DFC00900791204A204B5846059900F051
:109DE00005FC0491029022462B465846059900F046
:109DF00023FE3246534600F02DFD31E07AB60B00CB
:109E00002A3100000000F03F0032000096300000D0
:109E10000000084009C7EE3FFD033ADCF5015B1482
:109E2000E02F3EBE6E2F0000342F00000000F0BF78
:109E300000009040FE822B654715973C00CC904077
:109E400000346F3F01FCFFFF0000E03FEC2E0000FC
:109E5000FFFF0F00432EE63F396CA80C615C20BE6B
:109E60003F4A404B00F0C2FB049B029A00F0D8F836
:109E700006468A46079B009A00F0D2F804460D4633
:109E8000079B009A00F0D8FD3246534600F0E2FCF2
:109E9000064622462B4609911046194600F0A6FBBD
:109EA0008346024630488A460B4605217844FFF730
:109EB00002F85A46534600F099FB22462B4600F022
:109EC000C9FC82468B46324620462946099B00F053
:109ED0008DFB3246099B00F0A3F805910890002203
:109EE0004FF080435046594600F0A6FD06460091CB
:109EF00052465B462046294600F078FB3246009BDE
:109F000000F04AF9059B089A00F096FD22462B4680
:109F100000F092FD0022154B00F09CFC0D4604461B
:109F200001EB08510815002810DC4246204629465E
:109F300001F047FAFEF7ABFF042808BFFFF710F85F
:109F400042462046294601F03CFA044606980B4654
:109F500014B022463946BDE8F04D00F047BB000082
:109F6000EF39FAFE422EE63F002D00000000F03FE0
:109F70002DE9F04106460F4600F078FC04000D463E
:109F800018BF0120284320F00040C0F17F6000F19D
:109F9000E040C00F0ED0301C18BF0120384320F025
:109FA0000040C0F17F6000F1E040C00F04BF01201D
:109FB000FEF784FE20462946BDE8F08121F00042EC
:109FC000A2F16052B2F5801F01F0004328BFD2F128
:109FD0007F6C0BD95FEA001C43EAC20242EB50706F
:109FE00018BF704728BF20F001007047B2F5801FEE
:109FF000BCBF184670474FEA410C1CF5001F02D247
:10A00000084601F0F6B870B500F09AFB0000008930
:10A01000FFF7F6BF4FF00040A0F58000704700004A
:10A0200010B591EA030F48BF83F0004300F10C859F
:10A03000841A71EB030C05D2121943EB0C03001BBD
:10A0400061EB0C01DFF824E14FEA1154A4EB135C3F
:10A050001EEA430F18BF9EEA445F73D023EA0E0343
:10A06000DCF1200E21EA045143F4801332D322FAAA
:10A070000CFE10EB0E0023FA0CFE41EB0E01CCF1AE
:10A08000200E03FA0EFE10EB0E0051F10001B1F5A7
:10A09000801FCCF1200E32D201EB045112FA0EF2E5
:10A0A000BDE8104058BF7047401C38BF5FEA42020D
:10A0B00018BF7047002814BF20F0010041F10001D3
:10A0C0004FEA410313F5001F38BF7047A1F1C041AB
:10A0D00000F084BB012A43EB0302ACF1200CDCF15D
:10A0E0001F0E32BF4FF0000E23FA0CF310EB0300EB
:10A0F00041EB0451B4EB115FD0D0A1EB045101F559
:10A10000801149085FEA300001EB04510ED350F191
:10A11000000038BF12FA0EFE08D1BDE81040C9E7B2
:10A12000401C38BF5FEA4202CAD1C3E7BDE8104015
:10A130004FEA410313F5001F38BF7047A1F1C0413A
:10A1400000F04CBB9EEA445F08D011EA5E0FBDE808
:10A15000104004BF01F0004100207047BDE81040EE
:10A1600070B500F0EDFA00BF64FBBE3E0000E0FFFA
:10A1700002494FF0000001F0F2B800BF0000F87F84
:10A18000491058BFC1F140415B1058BFC3F1404373
:10A190008B42EFF3008070472DE9C04130B4DFF807
:10A1A000A0C23CEA111418BF3CEA131400F0EC8082
:10A1B00081EA03051CEA111444EAD57418BF1CEAAD
:10A1C000131500F0C780A4EB05044FF0004545EAE5
:10A1D000C12145EAC32341EA505143EA525304F1F5
:10A1E0007F74994204F500344FEAC0204FEAC2223E
:10A1F00008BF904200F09C804FEA13650FF24016B2
:10A20000765D4FEA134506FB05F7C7F1807706FB3D
:10A2100007F74FEAD737A7FB03687642C8F58038BF
:10A22000A7FB06CE38BFA8F1010807FB08E64FF0F0
:10A23000000EA6FB028CE6FB03CEDCF1000CCEF197
:10A24000004E38BFAEF1010EA6FB0C584FF00007D0
:10A250004FF00005E6FB0E87A1FB08C6A0FB07CE6A
:10A2600016EB0E0645F10005E1FB076515F1E04E22
:10A270007EBFA4F580345FEA46066D4116F1800783
:10A2800045F100054FEA17274FEA066647EA0567DA
:10A29000A6F1DE46B6F1805F4FEA15251FD9384694
:10A2A00024F0010C05EBC471BCF1FE6F01EB0C1145
:10A2B00002D8F0BCBDE8008124425CBF01F5801EDD
:10A2C0009EEAC47F02D4F0BCBDE80081244238D4A9
:10A2D000F0BCA1F1C041BDE8004100F07FBA4FEAF7
:10A2E000D22242EA43524FEAD323A7FB02864FEA27
:10A2F000D02040EA415007FB03661EEA0E0F4FEAEA
:10A30000D12105FB026658BFA6EB0056B6EB0056FE
:10A310004FEA520E4EEAC37E18EB0E0E56EB530E6A
:10A32000BDD518EB02085E417F1C55F10005B6E76C
:10A330004FF480154FF000074FF000064FF0000873
:10A34000ADE7F0BC4FF0000001F1C04101F0004169
:10A35000BDE8008111EA0C1F0CEA131500D00CE0D7
:10A3600013EA0C1F00F025804FF00000F0BC81EADA
:10A37000030101F00041BDE80081F0BC81EA030166
:10A38000BDE8004100F02ABAF0BCBDE8004170B55C
:10A3900000F0D6F9097EFC3E00F007B881EA03011F
:10A3A0004FF0000001F00041704781EA030100F026
:10A3B00015BAF0BC4FF000002249BDE800417047DB
:10A3C000FFFDFBF9F7F5F4F2F0EEEDEBE9E8E6E47A
:10A3D000E3E1E0DEDDDBDAD8D7D5D4D3D1D0CFCD01
:10A3E000CCCBCAC8C7C6C5C4C2C1C0BFBEBDBCBB3A
:10A3F000BAB9B8B7B6B5B4B3B2B1B0AFAEADACAB35
:10A40000AAA9A8A8A7A6A5A4A3A3A2A1A09F9F9E0E
:10A410009D9C9C9B9A9999989797969595949393C0
:10A42000929191908F8F8E8E8D8C8C8B8B8A898957
:10A4300088888787868585848483838282818180DA
:10A440000000FF070000F87F51EA030C17D41CF549
:10A45000801F58BFBCF5801F00F10680994218BFCD
:10A46000704708BF9042704707D711F5801F58BF4B
:10A4700013F5801F19D499427047894270471CF523
:10A48000801F08D5BCF5801FF7D58B4218BF7047D9
:10A4900008BF824270474FF4001C1CEB410F38BFCD
:10A4A0001CEB430F01D28B42704770B500F048F9A6
:10A4B000922449004FF000514FF08053FFF760BEE7
:10A4C0004FEA41034FEA5353A3F58063D3F11E03D0
:10A4D000C8BFD3F1210C0CDD4FF0004242EAC1228B
:10A4E00042EA505232FA03FC8CEAE17CACEBE170B8
:10A4F0007047102BC4BF0020704703F5787CBCF177
:10A50000FF3F04D06FF0004282EA2100704770B52F
:10A5100000F016F94992248000207047F2E710F00D
:10A52000004248BF4042B0FA80F310FA03F10AD06B
:10A53000C3F11D0303F580634FEA415002EB035260
:10A5400002EBD12170474FF000007047B0FA80F362
:10A5500010FA03F10AD0C3F11D0303F580634FEA3B
:10A5600041504FEA035202EBD12170474FF00000F7
:10A570007047000051EA030C17D41CF5801F58BF28
:10A58000BCF5801F00F10680994218BF704708BFD4
:10A590009042704707D711F5801F58BF13F5801FF1
:10A5A00019D499427047894270471CF5801F08D51D
:10A5B000BCF5801FF7D58B4218BF704708BF824299
:10A5C00070474FF4001C1CEB410F38BF1CEB430FCE
:10A5D00001D28B42704770B500F0B2F89224490066
:10A5E0004FF000514FF08053FFF7CABDDFF848C16C
:10A5F00070B51CEA111E1EBF1CEA13159EEA0C0F53
:10A6000095EA0C0F00F06F8081EA030423EA4C13F3
:10A610004EEAD47E21EA4C1141F4801143F48013B8
:10A62000AE44A1FB024CA0FB0365AEF17F7E361960
:10A6300055EB0C05A1FB034C4CF10003A0FB021CE5
:10A6400016EB0C06654153F10003094218BF46F0B2
:10A65000010613F4007F0BD14FEA03314FEA0530B6
:10A66000340341EA155140EA16506FF003020AE044
:10A670004FEAC3214FEAC520F40241EA555140EAAE
:10A6800056506FF0020202EB2E4201EB025585EAB2
:10A69000CE710AD05FEA440C18BF24F0004450F198
:10A6A000000041F1000120EAD47040F2FE7C6245D6
:10A6B00000D270BDA84214BF4FF080444FF0404418
:10A6C000002E08BF0024BEF1806FA8BFA1F1C041D9
:10A6D000BDE8704080F282804FF0000001F1C0417F
:10A6E00001F0004170479EEA0C0F0CEA131518BFE9
:10A6F00095EA0C0F06D04FF0000081EA030E0EF031
:10A70000004170BD00F01CF88900013E00F007B860
:10A7100000F009B84FEA430C5FEA5C5C08D081EABC
:10A72000030100F05BB84FEA410C5FEA5C5CF6D1D4
:10A730004FF00000014970470000FF070000F87F5C
:10A740000EF1020E2EF0030E5EF8046B364205D4B5
:10A75000012A43EB030515F5001F12D8012841EB30
:10A76000010C1CF5001F0CD80ED14FEAD17C15F559
:10A77000001F0CEB4C0C0CF1020C08BF4CEBD37C13
:10A7800004E04FF0080C01E04FEAD37C0CEB4C05E1
:10A7900026FA05F606F00706B6F1040C06D20EEB13
:10A7A000860CBDE870404CF0010C6047DFE80CF00F
:10A7B000090B02024FF000414FF00000A1F500210B
:10A7C00070BD19461046012851EB010418BFD4F59D
:10A7D000001484BF002001F0004170BD0808A0F5FE
:10A7E00000114FEA3101704753EA010C17D41CF5F0
:10A7F000801F58BFBCF5801F00F106808B4218BF38
:10A80000704708BF8242704707D713F5801F58BFB3
:10A8100011F5801F19D48B4270479B4270471CF57D
:10A82000801F08D5BCF5801FF7D5994218BF704727
:10A8300008BF904270474FF4001C1CEB430F38BF19
:10A840001CEB410F01D2994270470FB40CBC03BC02
:10A85000FFF7C1BE91EA030F10B581F000413FF54B
:10A86000E7AB83F0004300F0EFB800002DE9F041C2
:10A8700001F5801CBCF5001FC0F2C3804FEA115CDB
:10A8800021EA0C510CF1FD0C41F480115FEA5C0CE3
:10A890000CF5C07C01D3400049413DA4890241EA46
:10A8A000905187028E0E0A0CA45D04FB04F602FB95
:10A8B00006F6C6F14046A4FB0662F60D46EA4226BD
:10A8C00006FB06F4A4FB01235242C3F1404338BF08
:10A8D0005B1EA6FB02420024E6FB0324D20B42EAE5
:10A8E0004446A6FB0623A1FB02E2A3FB07E4A4184F
:10A8F0004FF0000252F10002E3FB01426442C2F158
:10A90000404E38BFAEF1010EA6FB04234FF000020B
:10A91000E6FB0E32A2FB03464FF00004B61954F1D9
:10A920000004E2FB0264A1FB06E6A4FB07E816EBC9
:10A9300008064FF0000858F10008E4FB0168764271
:10A94000C8F1405838BFA8F10108A2FB06E4A3FBF8
:10A9500008E52D194FF0000454F10004E2FB0854FF
:10A96000A1FB05E6A7FB04E818EB06084FF000067C
:10A9700056F10006E1FB048618F1200556F10006A9
:10A98000A809A8F11B08B10908F03F08B8F10A0F9F
:10A9900040EA86601CD901EB0C51BDE8F08100BF94
:10A9A000FCF5EEE8E2DDD8D3CFCBC7C3C0BDB9B666
:10A9B000B4B1AEACA9A7A5A3A19F9D9B9A9896956B
:10A9C0009392908F8D8C8B898887868584838281F2
:10A9D000A0FB006800FB01F208EB4208B8EB8728F7
:10A9E00007D5341858EB0104D5D5401C51F10001AE
:10A9F000D1E7341A78EB0104CDD4401E71F1000187
:10AA0000C9E75FEA4C0C5FEA9C5C0DD105D34FF0BF
:10AA1000000001F00041BDE8F081BDE8F04170B5F3
:10AA2000FFF78EFE6DDBFFBEBDE8F0414FF000008A
:10AA3000004970470000F87F10B591EA030F48BF46
:10AA400083F000433FF5F4AA841A71EB030C07D29C
:10AA500012198CF0004C43EB0C03001B61EB0C0152
:10AA6000DFF8A4E14FEA1154A4EB135C1EEA430F94
:10AA700018BF9EEA445F00F0B08023EA6E035242A2
:10AA800021EA0451C3EB6E0338BF5B1EDCF1200EDC
:10AA900025D322FA0CFE10EB0E0043FA0CFE41EB1C
:10AAA0000E01CCF1200E03FA0EFE10EB0E0051F158
:10AAB0000001CCF1200E29D412FA0EF201EB045160
:10AAC000BDE8104058BF7047401C1CBFB2F1004F9A
:10AAD000704700280CBF491C20F00100704712EBA2
:10AAE000020E43EB030218BF4FF0010E4EEA420282
:10AAF000ACF1200CDCF11E0E54D943FA0CFE10EB25
:10AB00000E0051F1FF31CCF11E0ED5D50EF1010E24
:10AB100012FA0EFE404141EB010101EB445C5FEA99
:10AB20005C5C10D910EBDE7001EB045138BFBEF154
:10AB3000004FBDE8104018BF704700280CBF491CEB
:10AB400020F00100704730D24FEAD42C11F50011EB
:10AB500024F400641BD0B1FA81F20B3AA41AA41EAB
:10AB6000D2F12003914030FA03F31943904001EBF6
:10AB7000CC71002C01EB0451BDE81040A8BF704718
:10AB800001F1C0414FF0000001F000417047B0FA00
:10AB900080F310FA03F100D110BDE41A173C480508
:10ABA000C90AE4E701EB045110BD491001EB04515F
:10ABB000BDE810404FEA300002E04FF0000170475E
:10ABC0004A0008BF0042F8D0B2F5001F28BF704706
:10ABD00001F000414FF0000070479EEA445F07D04B
:10ABE00011EA5E0FBDE8104004BF0021002070474D
:10ABF000BDE8104070B5FFF7A3FD00BF40DFF63E93
:10AC000083F00041104670470000E0FF43004FEA28
:10AC1000D30C4FEA3C0C43401FBF40070CF160517E
:10AC200013F0FE4F70471CF0006F03D100200CF0B2
:10AC3000004170470CF0004343EA507010B540EA01
:10AC4000CC0000F090FA00BF000000924FEA000133
:10AC5000FFF7C4BD4FF000414FF00000A1F5002107
:10AC60007047000090EA010F48BF81F0004100F1F9
:10AC70000883421A3CBF801A89184FEAD0524FF01D
:10AC80007F4C1CEA410FA2EBD15318BF9CEA026F24
:10AC900000F03B804FF0004C4CEA00204CEA0121D0
:10ACA00021FA03FC10EB0C0C1ED202F1FF325FEA1A
:10ACB0001C2040EBC25038BF70471CF07F0F4FEA9A
:10ACC000400C18BFBCF17F4F38BF7047C3F1200361
:10ACD000994008BF20F00100BCF17F4F38BF70479A
:10ACE000A0F1C04000F085BA4FEA3C00000A40EBFA
:10ACF000C25028BF1CF0FF0F4FEA400CE6D018BF2F
:10AD0000BCF17F4F38BF7047EAE79CEA026F05D07D
:10AD100010EA5C0F08BF00F00040704710B500F06B
:10AD200022FA00BF64FBBE3E401058BFC0F1404055
:10AD3000491058BFC1F140418142EFF30080704794
:10AD40004FF47F0C1CEAD0121EBF1CEAD11392EA0A
:10AD50000C0F93EA0C0F00F0858090EA010F48BFBA
:10AD600042F4807240F4000C41F400002CF07F416A
:10AD700020F07F4000B58142A2EB03020FF2081CD5
:10AD8000ACEB504EC0F100009EF800E04FEA4E0ED2
:10AD900000FB0EFC38BF49004FEA2C1C02F5FA02FA
:10ADA0000CFB0EF34FEACE1E4FEA112C4FEAC121E5
:10ADB0000EEB635E42EB22420EFB0CFC4FEA1C538F
:10ADC00000FB03114FEA112C4FEA01310EFB0CFC82
:10ADD0004FEADC4C00FB0C11C14228BF09184CEBB8
:10ADE00003335DF804EB10EB410143EBC250B2F5C5
:10ADF0007C0F38BF704729D512F0F00F1CBF00F14F
:10AE0000C04000F0004070470081828384858687BF
:10AE100088898B8C8D8E8F919293959697999A9C19
:10AE20009D9FA0A2A3A5A7A8AAACAEB0B2B3B5B788
:10AE3000B9BCBEC0C2C5C7C9CCCED1D4D7D9DCDF5E
:10AE4000E2E6E9ECF0F3F7FAFE0000004FEA400C0E
:10AE50000CF1807CBCF17E4F28BF7047B0F1C04040
:10AE600000F0C7B990EA010F0CEAD11348BF42F4D1
:10AE70008072624538BF634507D213F47F0F16D046
:10AE800080EA010000F00040704710B500F06BF957
:10AE9000097EFC3E00F005B880EA010000F00040A9
:10AEA000704780EA010000F0004000F0A2B912F4FF
:10AEB0007F0F04BF0248704780EA010000F099B993
:10AEC0000000C07F50EA010C00F113801CF5000F58
:10AED00058BFBCF5000F01D48842704707D710F562
:10AEE000000F58BF11F5000F15D4884270478942F2
:10AEF00070471CF5000F04D5BCF5000FF7D5814253
:10AF000070474FF0807C1CEB400F38BF1CEB410FAB
:10AF100001D28142704710B500F025F99224490012
:10AF20004FF000504FF08051FFF7FEBE41000B0E76
:10AF3000D3F19E0208D950F400034FEA032323FA09
:10AF400002F048BF4042704710B500F00CF900BF56
:10AF500049922480002070476FF0004282EA20006E
:10AF600070470000C10DD1F19E0206DB4FEA0023BD
:10AF700043F0004323FA02F07047004207D54FEA3E
:10AF80004001B1F1FE4F02D24FF00000704710B502
:10AF900000F0E9F849922480002070476FEA200011
:10AFA0007047000010F0004148BF4042B0FA80F303
:10AFB00010FA03F2C3F19D030BD051EAC35101EB28
:10AFC0001220530638BF704700F1010008BF20F07F
:10AFD00001007047B0FA80F310FA03F2C3F19D0349
:10AFE0000AD0D90501EB1220530638BF704700F193
:10AFF000010008BF20F001007047000050EA010C7A
:10B0000000F113801CF5000F58BFBCF5000F01D4F0
:10B010008842704707D710F5000F58BF11F5000F91
:10B0200015D488427047894270471CF5000F04D53B
:10B03000BCF5000FF7D5814270474FF0807C1CEBC8
:10B04000400F38BF1CEB410F01D28142704710B551
:10B0500000F089F8922449004FF000504FF08051E1
:10B06000FFF762BE4FF47F0C1CEAD0121EBF1CEA31
:10B07000D11392EA0C0F93EA0C0F00F0478090EA8C
:10B08000010F48BF42F480724FF0004C4CEA0020A0
:10B090004CEA012102EB0302A0FB0113A2F500021E
:10B0A000002918BF43F001035B0028BF4FEA3303B8
:10B0B00042EB22425FEA132C4CEBC2502EBFBCEB9A
:10B0C000436FB2F57C0F70474FEA036CBCF1004F41
:10B0D00008BF20F00100B2F57C0F38BF70470BD5D8
:10B0E00082F0FF0212F5803FC8BF704700F1C040F8
:10B0F000D8BF00F00040704700F5000C5FEA4C0C30
:10B1000048BF7047B0F1C04000F073B890EA010F3B
:10B110000CEAD11348BF42F48072624538BF6345E0
:10B1200004D280EA010000F00040704710B500F042
:10B130001AF800BF8900013E00F007B800F009B816
:10B140005FEA410C5FEA1C6C08D080EA010000F065
:10B1500050B85FEA400C5FEA1C6CF6D14FF000403B
:10B16000A0F5800070470EF1020E2EF0030E5EF87F
:10B17000044B244204D44FEA4102B2F17F4F11D86C
:10B180004FEA4003B3F17F4F0CD80ED14FEAD07C89
:10B19000B2F17F4F0CEB4C0C0CF1020C08BF4CEBE6
:10B1A000D17C04E04FF0080C01E04FEAD17C0CEBBD
:10B1B0004C0324FA03F404F00704B4F1040C06D29F
:10B1C0000EEB840CBDE810404CF0010C6047DFE84A
:10B1D0000CF0070802024FF00040A0F5800010BDFF
:10B1E0000846420018BFD2F1807288BF00F00040CC
:10B1F00010BDFF2141EAD050C005704751EA000C54
:10B2000000F113801CF5000F58BFBCF5000F01D4EE
:10B210008142704707D711F5000F58BF10F5000F96
:10B2200015D481427047894270471CF5000F04D540
:10B23000BCF5000FF7D5884270474FF0807C1CEBBF
:10B24000410F38BF1CEB400F01D28842704780EAA3
:10B25000010081EA000180EA0100FFF7F8BE80F0FA
:10B26000004090EA010F7FF504AD81F0004100F04D
:10B2700008B8000090EA010F48BF81F000413FF597
:10B28000F8AC421A04D882F00042A0EB020011444C
:10B290004FEAD0524FF07F4C1CEA410FA2EBD15342
:10B2A00018BF9CEA026F4AD04FF0004C4CEA0020D5
:10B2B0004CEA012121FA03FCB0EB0C0C0FD412F084
:10B2C000FE0F36D05FEA4C001DD5001240EBC25095
:10B2D00038BF70471CF03F0F18BF70470BE0A2F15A
:10B2E00001025FEA1C2040EBC25038BF70471CF0DF
:10B2F0007F0F18BF7047C3F12003994014BF401E51
:10B3000020F00100704780084FEA122308BF704701
:10B31000B0FA80FCA2EB0C02CCF1280C60FA0CF025
:10B3200093EA122F04BF00EBC25070474FEAC3707C
:10B330007047130A5FEADC1008BF7047F6E79CEA23
:10B34000026F04D010EA5C0F08BF0020704710B5F0
:10B35000FFF709FF40DFF63E81F0004070470CF038
:10B360000F03092B08BF082000F059800A2B0BD0CF
:10B37000082B18BF704708BF1CF0400F0AD04FF0D1
:10B3800000004FF0000170471CF0400F18BF4FF055
:10B39000004070471CF0100F08D020F0704300F000
:10B3A0007F4242EAD3014FEA4370704700F06040A9
:10B3B00021F07F4242EA000201F07F4040EA7270D1
:10B3C00070474FF0FF0C4CF4E06C1CEA11531CBFAB
:10B3D0009CEA030C9445C2BFDA4201EB025170476C
:10B3E000002B0DD0BCF1000F0FD0002A01F000415E
:10B3F000A4BF41F0E04141F07F614FF00000704791
:10B4000001F000414FF00000704750EA01334FF067
:10B410009B0C18BF4CF0806C7EF4AAAE70471CF4F5
:10B42000801F11D01CF4E02F03D06FEACC3149000B
:10B4300070474FF04050EFF3008222F0704242EA32
:10B44000000282F3008870474FF000007047000050
:10B4500000000000000000000000000000003F406D
:10B4600000000000000000003000400030004000FC
:10B47000000009000BC03D000BC03D00090018C0D2
:10B4800024407FE0224031800000180024C01B00CF
:10B490000D803240018003801C4027401C80074003
:10B4A00000401000600000000000000000000000EC
:10B4B000000000001F80204040200000402020406D
:10B4C0001F8000000000090006001F800600090020
:10B4D0000000040004003F8004000400000000108D
:10B4E00000600000000000000000040004000400F0
:10B4F0000400040000000000004000000000000004
:10B500000000002001C006003800400000001F803D
:10B510002040204020401F800000000010403FC01D
:10B5200000400000000018C0214022402440184084
:10B53000000010802040244024401B8000000200B6
:10B540000D0011003FC0014000003C802440244019
:10B550002440238000001F80244024403440038086
:10B5600000003000200027C03800200000001B80B1
:10B570002440244024401B8000001C0022C02240A4
:10B5800022401F8000000000000008400000000072
:10B590000000000000000460000000000000000047
:10B5A00004000A0011002080404009000900090041
:10B5B00009000900000000004040208011000A003E
:10B5C00004001800200023402400180000001F8001
:10B5D0002040274029401F400000004007C039009C
:10B5E0000F0001C0004020403FC0244024401B8089
:10B5F00000001F802040204020403080000020407C
:10B600003FC0204020401F80000020403FC0244019
:10B610002E4030C0000020403FC024402E003000AB
:10B6200000000F00108020402240338002002040A4
:10B630003FC0040004003FC02040204020403FC0E5
:10B640002040204000000060202020203FC020003B
:10B65000200020403FC024400B0030C0204020404C
:10B660003FC020400040004000C03FC03C0003C03D
:10B670003C003FC0000020403FC00C4023003FC0C2
:10B6800020001F802040204020401F8000002040DC
:10B690003FC024402400180000001F8021402140AA
:10B6A00020E01FA0000020403FC02440260019C019
:10B6B000004018C024402440224031800000300067
:10B6C00020403FC020403000000020003F8000406C
:10B6D00000403F80200020003E0001C007003800ED
:10B6E0002000380007C03C0007C0380000002040A0
:10B6F00039C0060039C0204000002000384007C093
:10B70000384020000000304021C02640384020C092
:10B710000000000000007FE040204020000000000A
:10B7200070000C000380004000000000402040201A
:10B730007FE000000000000020004000200000002A
:10B740000000001000100010001000100010000099
:10B7500000004000000000000000000002800540E2
:10B76000054003C0004020003FC004400440038067
:10B770000000000003800440044006400000000078
:10B780000380044024403FC0004000000380054087
:10B79000054003400000000004401FC02440244036
:10B7A0002000000002E00550055006500420204013
:10B7B0003FC00440040003C000400000044027C014
:10B7C00000400000000000100010041027E00000FE
:10B7D000000020403FC00140070004C0044020405A
:10B7E00020403FC000400040000007C0040007C0E8
:10B7F000040003C00000044007C00440040003C06C
:10B800000040000003800440044003800000041056
:10B8100007F004500440038000000000038004404F
:10B82000045007F00010044007C002400400040068
:10B830000000000006400540054004C00000000074
:10B8400004001F8004400040000004000780004006
:10B85000044007C000400400070004C00180060047
:10B860000400060001C0070001C0060000000440FB
:10B8700006C0010006C0044000000410071004E0E8
:10B880000180060004000000044005C0064004409A
:10B8900000000000000004007BE0402000000000E9
:10B8A00000000000FFF000000000000040207BE0EE
:10B8B0000400000000004000800040002000200044
:10B8C0004000000000000000000000000000000038
:10B8D00000000000000000001FCC000C0000000071
:10B8E0000000000008003000600008003000600028
:10B8F0000000022003FC1E20022003FC1E20022068
:10B90000000000000E1811043FFF10840C780000A6
:10B9100000000F0010840F3800C0077818840078EA
:10B92000000000780F8410C411240E9800E40084F5
:10B93000000808006800700000000000000000001F
:10B94000000000000000000007E01818200440027A
:10B950000000000040022004181807E0000000006A
:10B9600000000240024001800FF0018002400240CE
:10B9700000000080008000800FF8008000800080C0
:10B9800000000001000D000E00000000000000009B
:10B9900000000000008000800080008000800080A7
:10B9A00000800000000C000C0000000000000000FF
:10B9B000000000000006001800600180060018006A
:10B9C0002000000007F0080810041004080807F021
:10B9D00000000000080408041FFC0004000400002C
:10B9E000000000000E0C10141024104411840E0CE2
:10B9F000000000000C1810041104110412880C70CF
:10BA00000000000000E00320042408241FFC0024A0
:10BA1000000000001F981084110411041088107099
:10BA20000000000007F00888110411041888007055
:10BA3000000000001C00100010FC13001C0010008F
:10BA4000000000000E3811441084108411440E3898
:10BA5000000000000700088C10441044088807F01C
:10BA60000000000000000000030C030C00000000B8
:10BA700000000000000000010106000000000000BE
:10BA8000000000000080014002200410080810049B
:10BA900000000220022002200220022002200220B8
:10BAA000000000001004080804100220014000807B
:10BAB000000000000E001200100C106C10800F002F
:10BAC000000003E00C1813E4142417C4082807D05E
:10BAD00000000004003C03C41C40074000E4001CBC
:10BAE000000410041FFC1104110411040E880070DE
:10BAF000000003E00C1810041004100410081C10BF
:10BB0000000010041FFC100410041004080807F0C3
:10BB1000000010041FFC1104110417C410040818BD
:10BB2000000010041FFC1104110017C010000800D1
:10BB3000000003E00C181004100410441C780040AE
:10BB4000000010041FFC10840080008010841FFC83
:10BB500010040000100410041FFC10041004000066
:10BB6000000000030001100110011FFE1000100072
:10BB7000000010041FFC110403801464181C10043E
:10BB8000000010041FFC1004000400040004000C5A
:10BB9000000010041FFC1F0000FC1F001FFC10040D
:10BBA000000010041FFC0C04030000E010181FFC30
:10BBB000100007F00808100410041004080807F02B
:10BBC000000010041FFC10841080108010800F00F3
:10BBD000000007F0081810241024101C080A07F2AF
:10BBE000000010041FFC1104110011C011300E0CD4
:10BBF000000400000E1C11041084108410441C3832
:10BC000000001800100010041FFC100410001800A1
:10BC1000000010001FF810040004000410041FF8B6
:10BC2000100010001E0011E0001C007013801C00AA
:10BC300010001FC0103C00E01F0000E0103C1FC0BF
:10BC400000001004180C163401C001C01634180C82
:10BC5000100410001C00130400FC13041C0010004E
:10BC600000000804101C1064108413041C04101835
:10BC700000000000000000007FFE40024002400281
:10BC80000000000030000C0003800060001C000376
:10BC9000000000004002400240027FFE0000000061
:10BCA0000000000000002000400040004000200094
:10BCB000000000010001000100010001000100017D
:10BCC00000010000400040002000000000000000D3
:10BCD000000000000098012401440144014400FCDC
:10BCE000000410001FFC008801040104008800709B
:10BCF00000000000007000880104010401040088B5
:10BD000000000000007000880104010411081FFCFD
:10BD10000004000000F8014401440144014400C84B
:10BD200000000000010401040FFC110411041100C3
:10BD30001800000000D601290129012901C90106C6
:10BD4000000010041FFC008401000100010400FC3D
:10BD5000000400000104190419FC000400040000A0
:10BD600000000000000300010101190119FE00009C
:10BD7000000010041FFC0024004001B4010C010469
:10BD800000000000100410041FFC00040004000068
:10BD90000000010401FC0104010001FC0104010098
:10BDA00000FC010401FC008401000100010400FC0E
:10BDB0000004000000F8010401040104010400F87B
:10BDC0000000010101FF00850104010400880070EA
:10BDD000000000000070008801040104010501FF5B
:10BDE00000010104010401FC008401040100018040
:10BDF0000000000000CC012401240124012401984A
:10BE0000000000000100010007F801040104000027
:10BE10000000010001F8000400040004010801FC16
:10BE20000004010001800170000C0010016001801D
:10BE3000010001F0010C003001C00030010C01F0E4
:10BE4000010000000104018C00740170018C0104E8
:10BE50000000010101810171000E001801600180E4
:10BE6000010000000184010C013401440184010C33
:10BE70000000000000000000000001003EFC400245
:10BE800040020000000000000000FFFF0000000072
:10BE900000000000400240023EFC010000000000E3
:10BEA0000000000060008000800040004000200092
:10BEB000200000006800000476005401F7FD000136
:10BEC00075191A0C6A231B1C1F207274433B4138DE
:10BED000393A6B6C376F06246D6E7000830000007A
:10BEE0000008000000010018320005000000204199
:10BEF0000000D242295C0F3E9A99993E3333733F3A
:10BF0000295C0F3E000070000000002400000002C9
:10BF10000003000000650054FFEF0000FA80000BF2
:10BF200012820001030C30C30E8C8CE914D5400240
:10BF300013710F8E3883F8833000F883258EF883D1
:10BF40003000F883FFFFFFFF0FFEA9D62400040096
:10BF50001A8279A10000003CFFFF000000100000E1
:10BF600038836FA2003E03304000000002CAE3099C
:10BF70003E800000200000000000000040000000A3
:10BF800060000000000C0000000C186E000006921B
:10BF90000A16C0DFFFFF0256FD8CD377FFE1C4967F
:10BFA000E0C5BEAA00000000FFFF0B2B00001657E3
:10BFB000000003594000000000001DFA00026C1D43
:10BFC000000000003FFFDFEB003EB3B6000D22781B
:10BFD00000002F3C00000000001942B5000039A20B
:10BFE0000000B365D90E9FC91DCF4C34300000004E
:10BFF000500000003BB67AE80064000000C8000072
:10C0000000000000100000001000FA921000225EF4
:10C01000000D229F0001000000320000FF460000DA
:10C0200063D400001000000004D6000004CC00001F
:10C0300004CC00000000107200000040000000006E
:10C0400000000000000600020005000700000000DC
:10C05000006400000000000000000005000500640E
:10C060000020000000000000000000000000400070
:10C070000000030000000032F8980000FF65000097
:10C08000830F0000FF9BFC00000000000000000088
:10C0900000000000000000000000000000000000A0
:10C0A0000000000000000000000000000000000090
:10C0B0000000100040000000000000060000B26A0E
:10C0C000000200000001FB830068000000D9FC00B2
:10C0D0007CF1FF830000000000650000006403E8BD
:10C0E00000640028000000250000000016A00000E9
:10C0F0000000100000001000002F0000000001F4FC
:10C100000000100000280000FFFF4581FFFFFA72C9
:10C110000000000000000000004400050005BAC651
:10C12000004778A2000000010000000000000600A7
:10C13000000000140000254D002F706D000005AEBA
:10C14000000C02D000000000000000000000000011
:10C1500000000000001B00000000000000000000C4
:10C160000000000000640000000800000000000063
:10C1700000000000000000000000000000000000BF
:10C1800000000000000000000000000000000000AF
:10C19000000000000000000000000000000000009F
:10C1A000000000000000000000000000000000008F
:10C1B000000000000000000000000000000000007F
:10C1C00000000000001B0000000000000000000054
:10C1D000000E000E00000AC700040000000000323C
:10C1E000FFFFFF9C00000B2B00000002000000017D
:10C1F00000000064FFE500000000000000000000F7
:10C20000000000000000000100000000000100002C
:10C21000000000000001800000018000000180009B
:10C22000002426D3000000000000000000060010DB
:10C230000096003C0000000000000000000000002C
:10C24000000000000C0A4E68CDCF770950166759E0
:10C25000C619CE82000000000000000000000000AF
:10C2600000000000000000000000000017D784005C
:10C27000030000000000000000000000C7938F9D35
:10C280001E1B1C1900000000000000000000000040
:10C2900000000000000000000000000002031885FC
:10C2A0000000400000000003000000030000000048
:10C2B000000000004000000000000000000000003E
:10C2C000000000000000000000000000000000006E
:10C2D000000000000000000000000000000000005E
:10C2E0000000000000000000677DDF7E72902E5588
:10C2F0004CF6E6880000000000000000000000008E
:10C3000000000000D8DCB4B8B0D8B9ABF3F8FAB389
:10C31000B7BB8E9EAEF132F51BF1B4B8B08097F189
:10C32000A9DFDFDFAADFDFDFF2AAC5CDC7A90CC90D
:10C330002C97F1A989264666B28999A92D557DB019
:10C34000B08AA896365676F1BAA3B4B280C0B8A81F
:10C350009711B28398BAA3F0240844106418B2B9B4
:10C36000B49883F1A329557DBAB5B1A38393F000A6
:10C370002850F5B2B6AA839328547CF1B9A38293CE
:10C3800061BAA2DADEDFDB819AB9AEF5606870F1DE
:10C39000DABAA2DFD9BAA2FAB9A38292DB31BAA281
:10C3A000D9BAA2F8DF85A4D0C1BBAD83C2C5C7B8D6
:10C3B000A2DFDFDFBAA0DFDFDFD8D8F1B8AAB38D04
:10C3C000B4980D355DB2B6BAAF8C96198F9FA70E93
:10C3D000161EB49AB8AA872C547CBAA4B08AB69117
:10C3E000325676B28494A4C808CDD8B8B4B0F199C6
:10C3F00082A82D557D98A80E161EA22C547C92A4BE
:10C40000F02C5078F184A898C4CDFCD80DDBA8FCA2
:10C410002DF3D9BAA6F8DABAA6DED8BAB2B686969D
:10C42000A6D0F3C841DAA6C8F8D8B0B4B882A892AA
:10C43000F52C548898F135D9F418D8F1A2D0F8F930
:10C44000A884D9C7DFF8F883C5DADF69DF83C1D8EC
:10C45000F40114F1A8824EA884F311D182F5D99287
:10C46000289788F109F41C1CD884A8F3C0F9D1D905
:10C470009782F129F40DD8F3F9F9D1D982F4C203E6
:10C48000D8DEDF1AD8F1A2FAF9A88498D9C7DFF864
:10C49000F8F883C7DADF69DFF883C3D8F40114F151
:10C4A00098A8822EA884F311D182F5D9925097884A
:10C4B000F109F41CD884A8F3C0F8F9D1D99782F116
:10C4C00049F40DD8F3F9F9D1D982F4C403D8DEDFE9
:10C4D000D8F1AD8898CCA809F9D98292A8F57CF159
:10C4E000883ACF944A6E98DB6931DAADF2DEF9D83A
:10C4F0008795A8F221D1DAA5F9F417D9F1AE8ED03B
:10C50000C0C3AE82C684C3A88595C8A588F2C0F111
:10C51000F4010EF18E9EA8C63E56F554F18872F4D1
:10C520000115F19845856EF58E9E0488F142985A62
:10C530008E9E068869F4011CF1981E1108D0F5043E
:10C54000F11E970202983625DBF9D985A5F3C1DAE9
:10C5500085A5F3DFD88595A8F309DAA5FAD88292E4
:10C56000A8F578F1881A849F26889821DAF41DF3BB
:10C57000D8879F39D1AFD9DFDFFBF9F40CF3D8FAB4
:10C58000D0F8DAF9F9D0DFD9F9D8F40BD8F3879FCE
:10C5900039D1AFD9DFDFF41DF3D8FAFCA869F9F976
:10C5A000AFD0DADEFAD9F88F9FA8F1CCF398DB454B
:10C5B000D9AFDFD0F8D8F18F9FA8CAF38809DAAFD6
:10C5C0008FCBF8D8F2AD978D0CD9A5DFF9BAA6F3C9
:10C5D000FAF412F2D8950DD1D9BAA6F3FADAA5F287
:10C5E000C1BAA6F3DFD8F1BAB2B68696A6D0CAF31E
:10C5F00049DAA6CBF8D8B0B4B8D8AD84F2C0DFF130
:10C600008FCBC3A8B2B68696C8C1CBC3F3B0B488EB
:10C6100098A821DB718D9D71859521D9ADF2FAD84D
:10C620008597A828D9F408D8F28D29DAF405D9F22B
:10C6300085A4C2F2D8A88D9401D1D9F411F2D8877B
:10C6400021D8F40AD8F28498A8C801D1D9F411D815
:10C65000F3A4C8BBAFD0F2DEF8F8F8F8F8F8F8F8B1
:10C66000D8F1B8F6B5B9B08A95A3DE3CA3D9F8D80D
:10C670005CA3D9F8D87CA3D9F8D8F8F9D1A5D9DF2B
:10C68000DAFAD8B18530F7D9DED8F830ADDADED8AD
:10C69000F2B48C99A32D557DA083DFDFDFB591A087
:10C6A000F629D9FBD8A0FC29D9FAD8A0D051D9F8BD
:10C6B000D8FC51D9F9D879D9FBD8A0D0FC79D9FACE
:10C6C000D8A1F9F9F9F9F9A0DADFDFDFD8A1F8F894
:10C6D000F8F8F8ACDEF8ADDE8393AC2C547CF1A80E
:10C6E000DFDFDFF69D2CDAA0DFD9FADB2DF8D8A842
:10C6F00050DAA0D0DED9D0F8F8F8DB55F8D8A87811
:10C70000DAA0D0DFD9D0FAF8F8F8F8DB7DF8D89CB9
:10C71000A88CF530DB38D9D0DEDFA0D0DEDFD8A89A
:10C7200048DB58D9DFD0DEA0DFD0DED8A868DB70C8
:10C73000D9DFDFA0DFDFD8F1A888902C547C98A83F
:10C74000D05C38D1DAF2AE8CDFF9D8B087A8C1C19D
:10C75000B188A8C6F9F9DA36D8A8F9DA36D8A8F92E
:10C76000DA36D8A8F9DA36D8A8F9DA36D8F78D9DAE
:10C77000ADF818DAF2AEDFD8F7ADFA30D9A4DEF9A9
:10C78000D8F2AEDEFAF983A7D9C3C5C7F1889BA753
:10C790007AADF7DEDFA4F8849408A797F300AEF231
:10C7A0009819A488C6A39488F632DFF28393DB0934
:10C7B000D9F2AADFD8D8AEF8F9D1DAF3A4DEA7F11E
:10C7C000889B7AD8F38494AE19F9DAAAF1DFD8A855
:10C7D00081C0C3C5C7A39283F628ADDED9F8D8A31C
:10C7E00050ADD9F8D8A378ADD9F8D8F8F9D1A1DAF5
:10C7F000DEC3C5C7D8A18194F818F2B089ACC3C50F
:10C80000C7F1D8B8B4B09786A8319B069907AB9703
:10C8100028889BF00C201440B0B4B8F0A88A9A285D
:10C820005078B79BA82951792470594469386448D5
:10C8300031F1BBAB88002C547CF0B38BB8A8042832
:10C840005078F1B088B49726A85998BBABB38B0247
:10C85000264666B0B8F08A9CA82951798B2951796F
:10C860008A2470598B2058718A4469388B39406802
:10C870008A6448318B30496088F1AC002C547CF0DC
:10C880008CA804285078F1889726A85998AC8C0277
:10C89000264666F0899CA829517924705944693844
:10C8A000644831A98809205970AB11384069A8192A
:10C8B0003148608CA83C415C207C00F18798198647
:10C8C000A86E767EA999882D557DD8B1B5B9A3DF1C
:10C8D000DFDFAED0DFAAD0DEF2ABF8F9D9B087C483
:10C8E000AAF1DFDFBBAFDFDFB9D8B1F1A3978E606C
:10C8F000DFB084F2C8F8F9D9DED89385F14AB18364
:10C90000A308B5839A0810B79F10D8F1B0BAAEB09B
:10C910008AC2B2B68E9EF1FBD9F41DD8F9D90CF1BA
:10C92000D8F8F8AD61D9AEFBD8F40CF1D8F8F8AD71
:10C9300019D9AEFBDFD8F416F1D8F8AD8D61D9F472
:10C94000F4ACF59C9C8DDF2BBAB6AEFAF8F40BD89C
:10C95000F1AED0F8AD51DAAEFAF8F1D8B9B1B6A36C
:10C96000839C08B9B1839AB5AAC0FD3083B79F10E4
:10C97000B58B93F20202D1ABDADED8F1B080BAAB5C
:10C98000C0C3B284C1C3D8B1B9F38BA391B609B403
:10C99000D9ABDEB0879CB9A3DDF1B38B8B8B8B8BCE
:10C9A000B087A3A3A3A3B28BB69BF2A3A3A3A3A315
:10C9B000A3A3A3A3A3F1B087B59AA3F39BA3A3DC7E
:10C9C000BAACDFB9A3A3A3A3A3A3A3A3A3A3A3A3C5
:10C9D000A3A3A3A3D8D8D8BBB3B7F1AAF9DAFFD9D8
:10C9E000809AAA28B48098A720B79787A86688F06D
:10C9F0007951F1902C870CA781976293F071716047
:10CA000085940129517990A5F1284C6C870C9518D3
:10CA10008578A38390284C6C886CD8F3A28200F2AE
:10CA200010A8921980A2F2D926D8F188A84DD94829
:10CA3000D896A83980D93CD89580A839A68698D9A7
:10CA40002CDA87A72CD8A8899519A980D938D8A815
:10CA50008939A980DA3CD8A82EA83990D90CD8A851
:10CA6000953198D90CD8A809D9FFD801DAFFD89503
:10CA700039A9DA26FFD890A80D8999A810809821A5
:10CA8000DA2ED88999A83180DA2ED8A886963180F6
:10CA9000DA2ED8A8873180DA2ED8A88292F3418086
:10CAA000F1D92ED8A882F31980F1D92ED882ACF30F
:10CAB000C0A28022F1A62EA72EA92298A829DAAC1E
:10CAC000DEFFD8A2F22AF1A92E8292A8F23180A626
:10CAD00096F1D900AC8C9C0C30ACDED0DEFFD88C4B
:10CAE0009CACD010ACDE8092A2F24C82A8F1CAF2CB
:10CAF00035F19688A6D900D8F1FF000000000000AB
:10CB0000555555555555C53F7D6FEB0312D6D4BFCE
:10CB10005544880E55C1C93F3B8F68B52882A4BFD4
:10CB200088B20175E0EF493F09F7FD0DE13D023F95
:10CB30004B2D8A1C273A03C0C88A599CE52A00401D
:10CB400059018D1B6C06E6BF82922EB1C5B8B33F6A
:10CB5000000000000000F03F000000000000F83F6F
:10CB600000000000000000000000004003B8E23FA9
:10CB7000000000000000000006D0CF43EBFD4C3E5B
:10CB8000033333333333E33FFFAB6FDBB66DDB3F50
:10CB90004D268F515555D53F01411DA96074D13F98
:10CBA00065DBC9934A86CD3FEF4E454A287ECA3F92
:10CBB0003E5555555555C53F93BDBE166CC166BF14
:10CBC0002CDE25AF6A56113FF16BD2C541BDBBBE0D
:10CBD000D0A4BE726937663E4FBB610567ACDD3FCE
:10CBE000182D4454FB21E93F9BF681D20B73EF3F94
:10CBF000182D4454FB21F93FE2652F227F2B7A3C0C
:10CC0000075C143326A6813CBDCBF07A8807703CC4
:10CC1000075C143326A6913CC4EB98999999C9BF37
:10CC2000711623FEC671BCBF6D9A74AFF2B0B3BF6C
:10CC30009AFDDE522DDEADBF2F6C6A2C44B4A2BF2C
:10CC40000D5555555555D53FFF8300922449C23F98
:10CC50006E204CC5CD45B73F513DD0A0660DB13FCC
:10CC6000EB0D76244B7BA93F11DA22E33AAD903FDE
:10CC7000000000000000000050726F6475637420B3
:10CC800049442072656164206173203020696E64BC
:10CC9000696361746573206465766963652069738F
:10CCA0002065697468657220696E636F6D70617468
:10CCB00069626C65206F7220616E204D5055333073
:10CCC00035302E0D0A000000E8CC000800000020DE
:10CCD000480200006C01000840CD00084802002016
:10CCE000900F0000C80100083102A6018B20420805
:10CCF0002B204104322D0332B80BE9F1C910140185
:10CD0000420112021203120412051206120712083F
:10CD10001209120A120B120C120D120E120F02112E
:10CD20001005986F12833B13C0BE1B08B40401208A
:10CD30000A13DC24C3803F5AFF04021301000000E1
:0400000508000131BD
:00000001FF
